{
  "_format": "hh-sol-artifact-1",
  "contractName": "BurnManager",
  "sourceName": "contracts/double-bridge/v0.1/BurnAssets.sol",
  "abi": [
    {
      "inputs": [
        {
          "internalType": "address",
          "name": "_tokenAddress",
          "type": "address"
        }
      ],
      "stateMutability": "nonpayable",
      "type": "constructor"
    },
    {
      "inputs": [
        {
          "internalType": "address",
          "name": "owner",
          "type": "address"
        }
      ],
      "name": "OwnableInvalidOwner",
      "type": "error"
    },
    {
      "inputs": [
        {
          "internalType": "address",
          "name": "account",
          "type": "address"
        }
      ],
      "name": "OwnableUnauthorizedAccount",
      "type": "error"
    },
    {
      "anonymous": false,
      "inputs": [
        {
          "indexed": true,
          "internalType": "address",
          "name": "burner",
          "type": "address"
        },
        {
          "indexed": false,
          "internalType": "uint256",
          "name": "amount",
          "type": "uint256"
        },
        {
          "indexed": true,
          "internalType": "address",
          "name": "sepoliaRecipient",
          "type": "address"
        },
        {
          "indexed": false,
          "internalType": "bytes32",
          "name": "crosschainHash",
          "type": "bytes32"
        }
      ],
      "name": "Burned",
      "type": "event"
    },
    {
      "anonymous": false,
      "inputs": [
        {
          "indexed": true,
          "internalType": "address",
          "name": "previousOwner",
          "type": "address"
        },
        {
          "indexed": true,
          "internalType": "address",
          "name": "newOwner",
          "type": "address"
        }
      ],
      "name": "OwnershipTransferred",
      "type": "event"
    },
    {
      "inputs": [
        {
          "internalType": "uint256",
          "name": "amount",
          "type": "uint256"
        },
        {
          "internalType": "address",
          "name": "sepoliaRecipient",
          "type": "address"
        }
      ],
      "name": "burnCrossChain",
      "outputs": [],
      "stateMutability": "nonpayable",
      "type": "function"
    },
    {
      "inputs": [],
      "name": "owner",
      "outputs": [
        {
          "internalType": "address",
          "name": "",
          "type": "address"
        }
      ],
      "stateMutability": "view",
      "type": "function"
    },
    {
      "inputs": [],
      "name": "renounceOwnership",
      "outputs": [],
      "stateMutability": "nonpayable",
      "type": "function"
    },
    {
      "inputs": [],
      "name": "token",
      "outputs": [
        {
          "internalType": "contract IMintTokens",
          "name": "",
          "type": "address"
        }
      ],
      "stateMutability": "view",
      "type": "function"
    },
    {
      "inputs": [
        {
          "internalType": "address",
          "name": "newOwner",
          "type": "address"
        }
      ],
      "name": "transferOwnership",
      "outputs": [],
      "stateMutability": "nonpayable",
      "type": "function"
    }
  ],
  "bytecode": "0x60a06040523480156200001157600080fd5b5060405162000bd538038062000bd583398181016040528101906200003791906200029a565b33600073ffffffffffffffffffffffffffffffffffffffff168173ffffffffffffffffffffffffffffffffffffffff1603620000ad5760006040517f1e4fbdf7000000000000000000000000000000000000000000000000000000008152600401620000a49190620002dd565b60405180910390fd5b620000be816200016c60201b60201c565b50600073ffffffffffffffffffffffffffffffffffffffff168173ffffffffffffffffffffffffffffffffffffffff160362000131576040517f08c379a000000000000000000000000000000000000000000000000000000000815260040162000128906200035b565b60405180910390fd5b8073ffffffffffffffffffffffffffffffffffffffff1660808173ffffffffffffffffffffffffffffffffffffffff1681525050506200037d565b60008060009054906101000a900473ffffffffffffffffffffffffffffffffffffffff169050816000806101000a81548173ffffffffffffffffffffffffffffffffffffffff021916908373ffffffffffffffffffffffffffffffffffffffff1602179055508173ffffffffffffffffffffffffffffffffffffffff168173ffffffffffffffffffffffffffffffffffffffff167f8be0079c531659141344cd1fd0a4f28419497f9722a3daafe3b4186f6b6457e060405160405180910390a35050565b600080fd5b600073ffffffffffffffffffffffffffffffffffffffff82169050919050565b6000620002628262000235565b9050919050565b620002748162000255565b81146200028057600080fd5b50565b600081519050620002948162000269565b92915050565b600060208284031215620002b357620002b262000230565b5b6000620002c38482850162000283565b91505092915050565b620002d78162000255565b82525050565b6000602082019050620002f46000830184620002cc565b92915050565b600082825260208201905092915050565b7f546f6b656e20616464726573732063616e6e6f74206265207a65726f00000000600082015250565b600062000343601c83620002fa565b915062000350826200030b565b602082019050919050565b60006020820190508181036000830152620003768162000334565b9050919050565b608051610835620003a06000396000818161015c015261031001526108356000f3fe608060405234801561001057600080fd5b50600436106100575760003560e01c8063715018a61461005c5780638da5cb5b14610066578063a8a8472b14610084578063f2fde38b146100a0578063fc0c546a146100bc575b600080fd5b6100646100da565b005b61006e6100ee565b60405161007b91906104c6565b60405180910390f35b61009e60048036038101906100999190610548565b610117565b005b6100ba60048036038101906100b59190610588565b610288565b005b6100c461030e565b6040516100d19190610614565b60405180910390f35b6100e2610332565b6100ec60006103b9565b565b60008060009054906101000a900473ffffffffffffffffffffffffffffffffffffffff16905090565b6000821161015a576040517f08c379a00000000000000000000000000000000000000000000000000000000081526004016101519061068c565b60405180910390fd5b7f000000000000000000000000000000000000000000000000000000000000000073ffffffffffffffffffffffffffffffffffffffff166379cc679033846040518363ffffffff1660e01b81526004016101b59291906106bb565b600060405180830381600087803b1580156101cf57600080fd5b505af11580156101e3573d6000803e3d6000fd5b5050505060003383834243306040516020016102049695949392919061074d565b6040516020818303038152906040528051906020012090508173ffffffffffffffffffffffffffffffffffffffff163373ffffffffffffffffffffffffffffffffffffffff167f0e81c653852505951eaf51a98b14c20c236a757082da6f1612e40209504ebfa7858460405161027b9291906107d6565b60405180910390a3505050565b610290610332565b600073ffffffffffffffffffffffffffffffffffffffff168173ffffffffffffffffffffffffffffffffffffffff16036103025760006040517f1e4fbdf70000000000000000000000000000000000000000000000000000000081526004016102f991906104c6565b60405180910390fd5b61030b816103b9565b50565b7f000000000000000000000000000000000000000000000000000000000000000081565b61033a61047d565b73ffffffffffffffffffffffffffffffffffffffff166103586100ee565b73ffffffffffffffffffffffffffffffffffffffff16146103b75761037b61047d565b6040517f118cdaa70000000000000000000000000000000000000000000000000000000081526004016103ae91906104c6565b60405180910390fd5b565b60008060009054906101000a900473ffffffffffffffffffffffffffffffffffffffff169050816000806101000a81548173ffffffffffffffffffffffffffffffffffffffff021916908373ffffffffffffffffffffffffffffffffffffffff1602179055508173ffffffffffffffffffffffffffffffffffffffff168173ffffffffffffffffffffffffffffffffffffffff167f8be0079c531659141344cd1fd0a4f28419497f9722a3daafe3b4186f6b6457e060405160405180910390a35050565b600033905090565b600073ffffffffffffffffffffffffffffffffffffffff82169050919050565b60006104b082610485565b9050919050565b6104c0816104a5565b82525050565b60006020820190506104db60008301846104b7565b92915050565b600080fd5b6000819050919050565b6104f9816104e6565b811461050457600080fd5b50565b600081359050610516816104f0565b92915050565b610525816104a5565b811461053057600080fd5b50565b6000813590506105428161051c565b92915050565b6000806040838503121561055f5761055e6104e1565b5b600061056d85828601610507565b925050602061057e85828601610533565b9150509250929050565b60006020828403121561059e5761059d6104e1565b5b60006105ac84828501610533565b91505092915050565b6000819050919050565b60006105da6105d56105d084610485565b6105b5565b610485565b9050919050565b60006105ec826105bf565b9050919050565b60006105fe826105e1565b9050919050565b61060e816105f3565b82525050565b60006020820190506106296000830184610605565b92915050565b600082825260208201905092915050565b7f416d6f756e74206d7573742062652067726561746572207468616e2030000000600082015250565b6000610676601d8361062f565b915061068182610640565b602082019050919050565b600060208201905081810360008301526106a581610669565b9050919050565b6106b5816104e6565b82525050565b60006040820190506106d060008301856104b7565b6106dd60208301846106ac565b9392505050565b60008160601b9050919050565b60006106fc826106e4565b9050919050565b600061070e826106f1565b9050919050565b610726610721826104a5565b610703565b82525050565b6000819050919050565b610747610742826104e6565b61072c565b82525050565b60006107598289610715565b6014820191506107698288610736565b6020820191506107798287610715565b6014820191506107898286610736565b6020820191506107998285610736565b6020820191506107a98284610715565b601482019150819050979650505050505050565b6000819050919050565b6107d0816107bd565b82525050565b60006040820190506107eb60008301856106ac565b6107f860208301846107c7565b939250505056fea2646970667358221220e4af7dd7a7d3d4eb49121858354ecd2e7a65e66f986c2bef6e403602ef85a46f64736f6c63430008140033",
  "linkReferences": {},
  "deployedLinkReferences": {}
}