{
  "_format": "hh-sol-artifact-1",
  "contractName": "SepoliaBridge",
  "sourceName": "contracts/double-bridge/v0.1/LockAssets.sol",
  "abi": [
    {
      "inputs": [],
      "stateMutability": "nonpayable",
      "type": "constructor"
    },
    {
      "inputs": [
        {
          "internalType": "address",
          "name": "owner",
          "type": "address"
        }
      ],
      "name": "OwnableInvalidOwner",
      "type": "error"
    },
    {
      "inputs": [
        {
          "internalType": "address",
          "name": "account",
          "type": "address"
        }
      ],
      "name": "OwnableUnauthorizedAccount",
      "type": "error"
    },
    {
      "anonymous": false,
      "inputs": [
        {
          "indexed": true,
          "internalType": "address",
          "name": "recipient",
          "type": "address"
        },
        {
          "indexed": false,
          "internalType": "uint256",
          "name": "amount",
          "type": "uint256"
        }
      ],
      "name": "FeesWithdrawn",
      "type": "event"
    },
    {
      "anonymous": false,
      "inputs": [
        {
          "indexed": true,
          "internalType": "address",
          "name": "sender",
          "type": "address"
        },
        {
          "indexed": true,
          "internalType": "address",
          "name": "receiver",
          "type": "address"
        },
        {
          "indexed": false,
          "internalType": "uint256",
          "name": "amount",
          "type": "uint256"
        },
        {
          "indexed": false,
          "internalType": "uint256",
          "name": "fee",
          "type": "uint256"
        },
        {
          "indexed": false,
          "internalType": "bytes32",
          "name": "crosschainHash",
          "type": "bytes32"
        }
      ],
      "name": "Locked",
      "type": "event"
    },
    {
      "anonymous": false,
      "inputs": [
        {
          "indexed": true,
          "internalType": "address",
          "name": "previousOwner",
          "type": "address"
        },
        {
          "indexed": true,
          "internalType": "address",
          "name": "newOwner",
          "type": "address"
        }
      ],
      "name": "OwnershipTransferred",
      "type": "event"
    },
    {
      "anonymous": false,
      "inputs": [
        {
          "indexed": true,
          "internalType": "address",
          "name": "recipient",
          "type": "address"
        },
        {
          "indexed": false,
          "internalType": "uint256",
          "name": "amount",
          "type": "uint256"
        },
        {
          "indexed": false,
          "internalType": "bytes32",
          "name": "crosschainHash",
          "type": "bytes32"
        }
      ],
      "name": "Unlocked",
      "type": "event"
    },
    {
      "inputs": [],
      "name": "feeRate",
      "outputs": [
        {
          "internalType": "uint256",
          "name": "",
          "type": "uint256"
        }
      ],
      "stateMutability": "view",
      "type": "function"
    },
    {
      "inputs": [
        {
          "internalType": "address",
          "name": "imuaRecipient",
          "type": "address"
        }
      ],
      "name": "lock",
      "outputs": [],
      "stateMutability": "payable",
      "type": "function"
    },
    {
      "inputs": [],
      "name": "owner",
      "outputs": [
        {
          "internalType": "address",
          "name": "",
          "type": "address"
        }
      ],
      "stateMutability": "view",
      "type": "function"
    },
    {
      "inputs": [
        {
          "internalType": "bytes32",
          "name": "",
          "type": "bytes32"
        }
      ],
      "name": "processedUnlockTx",
      "outputs": [
        {
          "internalType": "bool",
          "name": "",
          "type": "bool"
        }
      ],
      "stateMutability": "view",
      "type": "function"
    },
    {
      "inputs": [],
      "name": "renounceOwnership",
      "outputs": [],
      "stateMutability": "nonpayable",
      "type": "function"
    },
    {
      "inputs": [],
      "name": "totalFeesCollected",
      "outputs": [
        {
          "internalType": "uint256",
          "name": "",
          "type": "uint256"
        }
      ],
      "stateMutability": "view",
      "type": "function"
    },
    {
      "inputs": [
        {
          "internalType": "address",
          "name": "newOwner",
          "type": "address"
        }
      ],
      "name": "transferOwnership",
      "outputs": [],
      "stateMutability": "nonpayable",
      "type": "function"
    },
    {
      "inputs": [
        {
          "internalType": "address",
          "name": "recipient",
          "type": "address"
        },
        {
          "internalType": "uint256",
          "name": "amount",
          "type": "uint256"
        },
        {
          "internalType": "bytes32",
          "name": "crosschainHash",
          "type": "bytes32"
        }
      ],
      "name": "unlock",
      "outputs": [],
      "stateMutability": "nonpayable",
      "type": "function"
    },
    {
      "inputs": [],
      "name": "withdrawFees",
      "outputs": [],
      "stateMutability": "nonpayable",
      "type": "function"
    },
    {
      "stateMutability": "payable",
      "type": "receive"
    }
  ],
  "bytecode": "0x6080604052600860015534801561001557600080fd5b5033600073ffffffffffffffffffffffffffffffffffffffff168173ffffffffffffffffffffffffffffffffffffffff16036100895760006040517f1e4fbdf700000000000000000000000000000000000000000000000000000000815260040161008091906101a3565b60405180910390fd5b6100988161009e60201b60201c565b506101be565b60008060009054906101000a900473ffffffffffffffffffffffffffffffffffffffff169050816000806101000a81548173ffffffffffffffffffffffffffffffffffffffff021916908373ffffffffffffffffffffffffffffffffffffffff1602179055508173ffffffffffffffffffffffffffffffffffffffff168173ffffffffffffffffffffffffffffffffffffffff167f8be0079c531659141344cd1fd0a4f28419497f9722a3daafe3b4186f6b6457e060405160405180910390a35050565b600073ffffffffffffffffffffffffffffffffffffffff82169050919050565b600061018d82610162565b9050919050565b61019d81610182565b82525050565b60006020820190506101b86000830184610194565b92915050565b61120580620001ce6000396000f3fe60806040526004361061008a5760003560e01c80638da5cb5b116100595780638da5cb5b14610165578063978bbdb914610190578063b322edea146101bb578063f2fde38b146101e4578063f435f5a71461020d576100ca565b806314252d59146100cf578063476343ee1461010c57806360c6d8ae14610123578063715018a61461014e576100ca565b366100ca576040517f08c379a00000000000000000000000000000000000000000000000000000000081526004016100c1906109a2565b60405180910390fd5b600080fd5b3480156100db57600080fd5b506100f660048036038101906100f191906109fd565b610229565b6040516101039190610a45565b60405180910390f35b34801561011857600080fd5b50610121610249565b005b34801561012f57600080fd5b506101386103b1565b6040516101459190610a79565b60405180910390f35b34801561015a57600080fd5b506101636103b7565b005b34801561017157600080fd5b5061017a6103cb565b6040516101879190610ad5565b60405180910390f35b34801561019c57600080fd5b506101a56103f4565b6040516101b29190610a79565b60405180910390f35b3480156101c757600080fd5b506101e260048036038101906101dd9190610b48565b6103fa565b005b3480156101f057600080fd5b5061020b60048036038101906102069190610b9b565b610617565b005b61022760048036038101906102229190610b9b565b61069d565b005b60036020528060005260406000206000915054906101000a900460ff1681565b6102516107cc565b600060025411610296576040517f08c379a000000000000000000000000000000000000000000000000000000000815260040161028d90610c14565b60405180910390fd5b60006002549050600060028190555060006102af6103cb565b73ffffffffffffffffffffffffffffffffffffffff16826040516102d290610c65565b60006040518083038185875af1925050503d806000811461030f576040519150601f19603f3d011682016040523d82523d6000602084013e610314565b606091505b5050905080610358576040517f08c379a000000000000000000000000000000000000000000000000000000000815260040161034f90610cc6565b60405180910390fd5b6103606103cb565b73ffffffffffffffffffffffffffffffffffffffff167fc0819c13be868895eb93e40eaceb96de976442fa1d404e5c55f14bb65a8c489a836040516103a59190610a79565b60405180910390a25050565b60025481565b6103bf6107cc565b6103c96000610853565b565b60008060009054906101000a900473ffffffffffffffffffffffffffffffffffffffff16905090565b60015481565b6104026107cc565b6003600082815260200190815260200160002060009054906101000a900460ff1615610463576040517f08c379a000000000000000000000000000000000000000000000000000000000815260040161045a90610d58565b60405180910390fd5b600082116104a6576040517f08c379a000000000000000000000000000000000000000000000000000000000815260040161049d90610dc4565b60405180910390fd5b814710156104e9576040517f08c379a00000000000000000000000000000000000000000000000000000000081526004016104e090610e56565b60405180910390fd5b60016003600083815260200190815260200160002060006101000a81548160ff02191690831515021790555060008373ffffffffffffffffffffffffffffffffffffffff168360405161053b90610c65565b60006040518083038185875af1925050503d8060008114610578576040519150601f19603f3d011682016040523d82523d6000602084013e61057d565b606091505b50509050806105c1576040517f08c379a00000000000000000000000000000000000000000000000000000000081526004016105b890610ec2565b60405180910390fd5b8373ffffffffffffffffffffffffffffffffffffffff167f0789f9c65a83ea68c24fd9e4ddf905e92e29f40da2c579072f6426d28e85ca138484604051610609929190610ef1565b60405180910390a250505050565b61061f6107cc565b600073ffffffffffffffffffffffffffffffffffffffff168173ffffffffffffffffffffffffffffffffffffffff16036106915760006040517f1e4fbdf70000000000000000000000000000000000000000000000000000000081526004016106889190610ad5565b60405180910390fd5b61069a81610853565b50565b600034116106e0576040517f08c379a00000000000000000000000000000000000000000000000000000000081526004016106d790610f66565b60405180910390fd5b60006103e8600154346106f39190610fb5565b6106fd9190611026565b90506000813461070d9190611057565b90508160026000828254610721919061108b565b92505081905550600033848342433060405160200161074596959493929190611128565b6040516020818303038152906040528051906020012090508373ffffffffffffffffffffffffffffffffffffffff163373ffffffffffffffffffffffffffffffffffffffff167f7aa78006cc7a7618c8491857405853f301af6f51619f45603c6bb6cc9688668b8486856040516107be93929190611198565b60405180910390a350505050565b6107d4610917565b73ffffffffffffffffffffffffffffffffffffffff166107f26103cb565b73ffffffffffffffffffffffffffffffffffffffff161461085157610815610917565b6040517f118cdaa70000000000000000000000000000000000000000000000000000000081526004016108489190610ad5565b60405180910390fd5b565b60008060009054906101000a900473ffffffffffffffffffffffffffffffffffffffff169050816000806101000a81548173ffffffffffffffffffffffffffffffffffffffff021916908373ffffffffffffffffffffffffffffffffffffffff1602179055508173ffffffffffffffffffffffffffffffffffffffff168173ffffffffffffffffffffffffffffffffffffffff167f8be0079c531659141344cd1fd0a4f28419497f9722a3daafe3b4186f6b6457e060405160405180910390a35050565b600033905090565b600082825260208201905092915050565b7f43616c6c206c6f636b2066756e6374696f6e20746f206465706f73697420455460008201527f4800000000000000000000000000000000000000000000000000000000000000602082015250565b600061098c60218361091f565b915061099782610930565b604082019050919050565b600060208201905081810360008301526109bb8161097f565b9050919050565b600080fd5b6000819050919050565b6109da816109c7565b81146109e557600080fd5b50565b6000813590506109f7816109d1565b92915050565b600060208284031215610a1357610a126109c2565b5b6000610a21848285016109e8565b91505092915050565b60008115159050919050565b610a3f81610a2a565b82525050565b6000602082019050610a5a6000830184610a36565b92915050565b6000819050919050565b610a7381610a60565b82525050565b6000602082019050610a8e6000830184610a6a565b92915050565b600073ffffffffffffffffffffffffffffffffffffffff82169050919050565b6000610abf82610a94565b9050919050565b610acf81610ab4565b82525050565b6000602082019050610aea6000830184610ac6565b92915050565b610af981610ab4565b8114610b0457600080fd5b50565b600081359050610b1681610af0565b92915050565b610b2581610a60565b8114610b3057600080fd5b50565b600081359050610b4281610b1c565b92915050565b600080600060608486031215610b6157610b606109c2565b5b6000610b6f86828701610b07565b9350506020610b8086828701610b33565b9250506040610b91868287016109e8565b9150509250925092565b600060208284031215610bb157610bb06109c2565b5b6000610bbf84828501610b07565b91505092915050565b7f4e6f206665657320746f20776974686472617700000000000000000000000000600082015250565b6000610bfe60138361091f565b9150610c0982610bc8565b602082019050919050565b60006020820190508181036000830152610c2d81610bf1565b9050919050565b600081905092915050565b50565b6000610c4f600083610c34565b9150610c5a82610c3f565b600082019050919050565b6000610c7082610c42565b9150819050919050565b7f466565207769746864726177616c206661696c65640000000000000000000000600082015250565b6000610cb060158361091f565b9150610cbb82610c7a565b602082019050919050565b60006020820190508181036000830152610cdf81610ca3565b9050919050565b7f43726f73732d636861696e206861736820616c72656164792070726f6365737360008201527f656420666f7220756e6c6f636b00000000000000000000000000000000000000602082015250565b6000610d42602d8361091f565b9150610d4d82610ce6565b604082019050919050565b60006020820190508181036000830152610d7181610d35565b9050919050565b7f416d6f756e74206d7573742062652067726561746572207468616e2030000000600082015250565b6000610dae601d8361091f565b9150610db982610d78565b602082019050919050565b60006020820190508181036000830152610ddd81610da1565b9050919050565b7f496e73756666696369656e7420636f6e74726163742062616c616e636520746f60008201527f20756e6c6f636b00000000000000000000000000000000000000000000000000602082015250565b6000610e4060278361091f565b9150610e4b82610de4565b604082019050919050565b60006020820190508181036000830152610e6f81610e33565b9050919050565b7f45544820756e6c6f636b206661696c6564000000000000000000000000000000600082015250565b6000610eac60118361091f565b9150610eb782610e76565b602082019050919050565b60006020820190508181036000830152610edb81610e9f565b9050919050565b610eeb816109c7565b82525050565b6000604082019050610f066000830185610a6a565b610f136020830184610ee2565b9392505050565b7f4e6f206574682073656e74000000000000000000000000000000000000000000600082015250565b6000610f50600b8361091f565b9150610f5b82610f1a565b602082019050919050565b60006020820190508181036000830152610f7f81610f43565b9050919050565b7f4e487b7100000000000000000000000000000000000000000000000000000000600052601160045260246000fd5b6000610fc082610a60565b9150610fcb83610a60565b9250828202610fd981610a60565b91508282048414831517610ff057610fef610f86565b5b5092915050565b7f4e487b7100000000000000000000000000000000000000000000000000000000600052601260045260246000fd5b600061103182610a60565b915061103c83610a60565b92508261104c5761104b610ff7565b5b828204905092915050565b600061106282610a60565b915061106d83610a60565b925082820390508181111561108557611084610f86565b5b92915050565b600061109682610a60565b91506110a183610a60565b92508282019050808211156110b9576110b8610f86565b5b92915050565b60008160601b9050919050565b60006110d7826110bf565b9050919050565b60006110e9826110cc565b9050919050565b6111016110fc82610ab4565b6110de565b82525050565b6000819050919050565b61112261111d82610a60565b611107565b82525050565b600061113482896110f0565b60148201915061114482886110f0565b6014820191506111548287611111565b6020820191506111648286611111565b6020820191506111748285611111565b60208201915061118482846110f0565b601482019150819050979650505050505050565b60006060820190506111ad6000830186610a6a565b6111ba6020830185610a6a565b6111c76040830184610ee2565b94935050505056fea2646970667358221220f94afa92bb713c02bf8e810dfd35d981739c3dad184a4e7457596095f044fbf664736f6c63430008140033",
  "linkReferences": {},
  "deployedLinkReferences": {}
}