{
  "_format": "hh-sol-artifact-1",
  "contractName": "LockTokens",
  "sourceName": "contracts/Lock.sol",
  "abi": [
    {
      "inputs": [],
      "stateMutability": "nonpayable",
      "type": "constructor"
    },
    {
      "anonymous": false,
      "inputs": [
        {
          "indexed": true,
          "internalType": "address",
          "name": "recipient",
          "type": "address"
        },
        {
          "indexed": false,
          "internalType": "uint256",
          "name": "amount",
          "type": "uint256"
        }
      ],
      "name": "FeesWithdrawn",
      "type": "event"
    },
    {
      "anonymous": false,
      "inputs": [
        {
          "indexed": true,
          "internalType": "address",
          "name": "sender",
          "type": "address"
        },
        {
          "indexed": true,
          "internalType": "address",
          "name": "receiver",
          "type": "address"
        },
        {
          "indexed": false,
          "internalType": "uint256",
          "name": "amount",
          "type": "uint256"
        },
        {
          "indexed": false,
          "internalType": "uint256",
          "name": "fee",
          "type": "uint256"
        },
        {
          "indexed": false,
          "internalType": "bytes32",
          "name": "crosschainHash",
          "type": "bytes32"
        }
      ],
      "name": "Locked",
      "type": "event"
    },
    {
      "inputs": [],
      "name": "feeRate",
      "outputs": [
        {
          "internalType": "uint256",
          "name": "",
          "type": "uint256"
        }
      ],
      "stateMutability": "view",
      "type": "function"
    },
    {
      "inputs": [
        {
          "internalType": "address",
          "name": "receiver",
          "type": "address"
        }
      ],
      "name": "lock",
      "outputs": [],
      "stateMutability": "payable",
      "type": "function"
    },
    {
      "inputs": [],
      "name": "owner",
      "outputs": [
        {
          "internalType": "address",
          "name": "",
          "type": "address"
        }
      ],
      "stateMutability": "view",
      "type": "function"
    },
    {
      "inputs": [],
      "name": "totalFeesCollected",
      "outputs": [
        {
          "internalType": "uint256",
          "name": "",
          "type": "uint256"
        }
      ],
      "stateMutability": "view",
      "type": "function"
    },
    {
      "inputs": [],
      "name": "withdrawFees",
      "outputs": [],
      "stateMutability": "nonpayable",
      "type": "function"
    }
  ],
  "bytecode": "0x6080604052600860015534801561001557600080fd5b50336000806101000a81548173ffffffffffffffffffffffffffffffffffffffff021916908373ffffffffffffffffffffffffffffffffffffffff1602179055506109cf806100656000396000f3fe60806040526004361061004a5760003560e01c8063476343ee1461004f57806360c6d8ae146100665780638da5cb5b14610091578063978bbdb9146100bc578063f435f5a7146100e7575b600080fd5b34801561005b57600080fd5b50610064610103565b005b34801561007257600080fd5b5061007b6102e3565b604051610088919061045b565b60405180910390f35b34801561009d57600080fd5b506100a66102e9565b6040516100b391906104b7565b60405180910390f35b3480156100c857600080fd5b506100d161030d565b6040516100de919061045b565b60405180910390f35b61010160048036038101906100fc9190610503565b610313565b005b60008054906101000a900473ffffffffffffffffffffffffffffffffffffffff1673ffffffffffffffffffffffffffffffffffffffff163373ffffffffffffffffffffffffffffffffffffffff1614610191576040517f08c379a00000000000000000000000000000000000000000000000000000000081526004016101889061058d565b60405180910390fd5b6000600254116101d6576040517f08c379a00000000000000000000000000000000000000000000000000000000081526004016101cd906105f9565b60405180910390fd5b60006002549050600060028190555060003373ffffffffffffffffffffffffffffffffffffffff168260405161020b9061064a565b60006040518083038185875af1925050503d8060008114610248576040519150601f19603f3d011682016040523d82523d6000602084013e61024d565b606091505b5050905080610291576040517f08c379a0000000000000000000000000000000000000000000000000000000008152600401610288906106ab565b60405180910390fd5b3373ffffffffffffffffffffffffffffffffffffffff167fc0819c13be868895eb93e40eaceb96de976442fa1d404e5c55f14bb65a8c489a836040516102d7919061045b565b60405180910390a25050565b60025481565b60008054906101000a900473ffffffffffffffffffffffffffffffffffffffff1681565b60015481565b60003411610356576040517f08c379a000000000000000000000000000000000000000000000000000000000815260040161034d90610717565b60405180910390fd5b60006103e8600154346103699190610766565b61037391906107d7565b9050600081346103839190610808565b90508160026000828254610397919061083c565b9250508190555060003384834243326040516020016103bb969594939291906108d9565b6040516020818303038152906040528051906020012090508373ffffffffffffffffffffffffffffffffffffffff163373ffffffffffffffffffffffffffffffffffffffff167f7aa78006cc7a7618c8491857405853f301af6f51619f45603c6bb6cc9688668b84868560405161043493929190610962565b60405180910390a350505050565b6000819050919050565b61045581610442565b82525050565b6000602082019050610470600083018461044c565b92915050565b600073ffffffffffffffffffffffffffffffffffffffff82169050919050565b60006104a182610476565b9050919050565b6104b181610496565b82525050565b60006020820190506104cc60008301846104a8565b92915050565b600080fd5b6104e081610496565b81146104eb57600080fd5b50565b6000813590506104fd816104d7565b92915050565b600060208284031215610519576105186104d2565b5b6000610527848285016104ee565b91505092915050565b600082825260208201905092915050565b7f4f6e6c79206f776e65722063616e207769746864726177206665657300000000600082015250565b6000610577601c83610530565b915061058282610541565b602082019050919050565b600060208201905081810360008301526105a68161056a565b9050919050565b7f4e6f206665657320746f20776974686472617700000000000000000000000000600082015250565b60006105e3601383610530565b91506105ee826105ad565b602082019050919050565b60006020820190508181036000830152610612816105d6565b9050919050565b600081905092915050565b50565b6000610634600083610619565b915061063f82610624565b600082019050919050565b600061065582610627565b9150819050919050565b7f466565207769746864726177616c206661696c65640000000000000000000000600082015250565b6000610695601583610530565b91506106a08261065f565b602082019050919050565b600060208201905081810360008301526106c481610688565b9050919050565b7f4e6f20696d75612073656e740000000000000000000000000000000000000000600082015250565b6000610701600c83610530565b915061070c826106cb565b602082019050919050565b60006020820190508181036000830152610730816106f4565b9050919050565b7f4e487b7100000000000000000000000000000000000000000000000000000000600052601160045260246000fd5b600061077182610442565b915061077c83610442565b925082820261078a81610442565b915082820484148315176107a1576107a0610737565b5b5092915050565b7f4e487b7100000000000000000000000000000000000000000000000000000000600052601260045260246000fd5b60006107e282610442565b91506107ed83610442565b9250826107fd576107fc6107a8565b5b828204905092915050565b600061081382610442565b915061081e83610442565b925082820390508181111561083657610835610737565b5b92915050565b600061084782610442565b915061085283610442565b925082820190508082111561086a57610869610737565b5b92915050565b60008160601b9050919050565b600061088882610870565b9050919050565b600061089a8261087d565b9050919050565b6108b26108ad82610496565b61088f565b82525050565b6000819050919050565b6108d36108ce82610442565b6108b8565b82525050565b60006108e582896108a1565b6014820191506108f582886108a1565b60148201915061090582876108c2565b60208201915061091582866108c2565b60208201915061092582856108c2565b60208201915061093582846108a1565b601482019150819050979650505050505050565b6000819050919050565b61095c81610949565b82525050565b6000606082019050610977600083018661044c565b610984602083018561044c565b6109916040830184610953565b94935050505056fea2646970667358221220dbfe5219829560350c6040031b73f9c2f7319923302f90d0f78a931b41be8ff264736f6c63430008140033",
  "linkReferences": {},
  "deployedLinkReferences": {}
}