{
  "_format": "hh-sol-artifact-1",
  "contractName": "SepoliaBridge",
  "sourceName": "contracts/double-bridge/v0.1/LockAssets.sol",
  "abi": [
    {
      "inputs": [],
      "stateMutability": "nonpayable",
      "type": "constructor"
    },
    {
      "inputs": [],
      "name": "AccessControlBadConfirmation",
      "type": "error"
    },
    {
      "inputs": [
        {
          "internalType": "address",
          "name": "account",
          "type": "address"
        },
        {
          "internalType": "bytes32",
          "name": "neededRole",
          "type": "bytes32"
        }
      ],
      "name": "AccessControlUnauthorizedAccount",
      "type": "error"
    },
    {
      "anonymous": false,
      "inputs": [
        {
          "indexed": true,
          "internalType": "address",
          "name": "recipient",
          "type": "address"
        },
        {
          "indexed": false,
          "internalType": "uint256",
          "name": "amount",
          "type": "uint256"
        }
      ],
      "name": "FeesWithdrawn",
      "type": "event"
    },
    {
      "anonymous": false,
      "inputs": [
        {
          "indexed": true,
          "internalType": "address",
          "name": "sender",
          "type": "address"
        },
        {
          "indexed": true,
          "internalType": "address",
          "name": "receiver",
          "type": "address"
        },
        {
          "indexed": false,
          "internalType": "uint256",
          "name": "amount",
          "type": "uint256"
        },
        {
          "indexed": false,
          "internalType": "uint256",
          "name": "fee",
          "type": "uint256"
        },
        {
          "indexed": false,
          "internalType": "bytes32",
          "name": "crosschainHash",
          "type": "bytes32"
        }
      ],
      "name": "Locked",
      "type": "event"
    },
    {
      "anonymous": false,
      "inputs": [
        {
          "indexed": true,
          "internalType": "bytes32",
          "name": "role",
          "type": "bytes32"
        },
        {
          "indexed": true,
          "internalType": "bytes32",
          "name": "previousAdminRole",
          "type": "bytes32"
        },
        {
          "indexed": true,
          "internalType": "bytes32",
          "name": "newAdminRole",
          "type": "bytes32"
        }
      ],
      "name": "RoleAdminChanged",
      "type": "event"
    },
    {
      "anonymous": false,
      "inputs": [
        {
          "indexed": true,
          "internalType": "bytes32",
          "name": "role",
          "type": "bytes32"
        },
        {
          "indexed": true,
          "internalType": "address",
          "name": "account",
          "type": "address"
        },
        {
          "indexed": true,
          "internalType": "address",
          "name": "sender",
          "type": "address"
        }
      ],
      "name": "RoleGranted",
      "type": "event"
    },
    {
      "anonymous": false,
      "inputs": [
        {
          "indexed": true,
          "internalType": "bytes32",
          "name": "role",
          "type": "bytes32"
        },
        {
          "indexed": true,
          "internalType": "address",
          "name": "account",
          "type": "address"
        },
        {
          "indexed": true,
          "internalType": "address",
          "name": "sender",
          "type": "address"
        }
      ],
      "name": "RoleRevoked",
      "type": "event"
    },
    {
      "anonymous": false,
      "inputs": [
        {
          "indexed": true,
          "internalType": "address",
          "name": "recipient",
          "type": "address"
        },
        {
          "indexed": false,
          "internalType": "uint256",
          "name": "amount",
          "type": "uint256"
        },
        {
          "indexed": false,
          "internalType": "bytes32",
          "name": "crosschainHash",
          "type": "bytes32"
        }
      ],
      "name": "Unlocked",
      "type": "event"
    },
    {
      "inputs": [],
      "name": "DEFAULT_ADMIN_ROLE",
      "outputs": [
        {
          "internalType": "bytes32",
          "name": "",
          "type": "bytes32"
        }
      ],
      "stateMutability": "view",
      "type": "function"
    },
    {
      "inputs": [],
      "name": "RELAYER_ROLE",
      "outputs": [
        {
          "internalType": "bytes32",
          "name": "",
          "type": "bytes32"
        }
      ],
      "stateMutability": "view",
      "type": "function"
    },
    {
      "inputs": [],
      "name": "feeRate",
      "outputs": [
        {
          "internalType": "uint256",
          "name": "",
          "type": "uint256"
        }
      ],
      "stateMutability": "view",
      "type": "function"
    },
    {
      "inputs": [
        {
          "internalType": "bytes32",
          "name": "role",
          "type": "bytes32"
        }
      ],
      "name": "getRoleAdmin",
      "outputs": [
        {
          "internalType": "bytes32",
          "name": "",
          "type": "bytes32"
        }
      ],
      "stateMutability": "view",
      "type": "function"
    },
    {
      "inputs": [
        {
          "internalType": "bytes32",
          "name": "role",
          "type": "bytes32"
        },
        {
          "internalType": "address",
          "name": "account",
          "type": "address"
        }
      ],
      "name": "grantRole",
      "outputs": [],
      "stateMutability": "nonpayable",
      "type": "function"
    },
    {
      "inputs": [
        {
          "internalType": "bytes32",
          "name": "role",
          "type": "bytes32"
        },
        {
          "internalType": "address",
          "name": "account",
          "type": "address"
        }
      ],
      "name": "hasRole",
      "outputs": [
        {
          "internalType": "bool",
          "name": "",
          "type": "bool"
        }
      ],
      "stateMutability": "view",
      "type": "function"
    },
    {
      "inputs": [
        {
          "internalType": "address",
          "name": "imuaRecipient",
          "type": "address"
        }
      ],
      "name": "lock",
      "outputs": [],
      "stateMutability": "payable",
      "type": "function"
    },
    {
      "inputs": [
        {
          "internalType": "bytes32",
          "name": "",
          "type": "bytes32"
        }
      ],
      "name": "processedUnlockTx",
      "outputs": [
        {
          "internalType": "bool",
          "name": "",
          "type": "bool"
        }
      ],
      "stateMutability": "view",
      "type": "function"
    },
    {
      "inputs": [
        {
          "internalType": "bytes32",
          "name": "role",
          "type": "bytes32"
        },
        {
          "internalType": "address",
          "name": "callerConfirmation",
          "type": "address"
        }
      ],
      "name": "renounceRole",
      "outputs": [],
      "stateMutability": "nonpayable",
      "type": "function"
    },
    {
      "inputs": [
        {
          "internalType": "bytes32",
          "name": "role",
          "type": "bytes32"
        },
        {
          "internalType": "address",
          "name": "account",
          "type": "address"
        }
      ],
      "name": "revokeRole",
      "outputs": [],
      "stateMutability": "nonpayable",
      "type": "function"
    },
    {
      "inputs": [
        {
          "internalType": "bytes4",
          "name": "interfaceId",
          "type": "bytes4"
        }
      ],
      "name": "supportsInterface",
      "outputs": [
        {
          "internalType": "bool",
          "name": "",
          "type": "bool"
        }
      ],
      "stateMutability": "view",
      "type": "function"
    },
    {
      "inputs": [],
      "name": "totalFeesCollected",
      "outputs": [
        {
          "internalType": "uint256",
          "name": "",
          "type": "uint256"
        }
      ],
      "stateMutability": "view",
      "type": "function"
    },
    {
      "inputs": [
        {
          "internalType": "address",
          "name": "recipient",
          "type": "address"
        },
        {
          "internalType": "uint256",
          "name": "amount",
          "type": "uint256"
        },
        {
          "internalType": "bytes32",
          "name": "crosschainHash",
          "type": "bytes32"
        }
      ],
      "name": "unlock",
      "outputs": [],
      "stateMutability": "nonpayable",
      "type": "function"
    },
    {
      "inputs": [],
      "name": "withdrawFees",
      "outputs": [],
      "stateMutability": "nonpayable",
      "type": "function"
    },
    {
      "stateMutability": "payable",
      "type": "receive"
    }
  ],
  "bytecode": "0x608060405260086001553480156200001657600080fd5b506200002c6000801b336200006660201b60201c565b506200005f7fe2b7fb3b832174769106daebcfd6d1970523240dda11281102db9363b83b0dc4336200006660201b60201c565b50620001db565b60006200007a83836200016960201b60201c565b6200015e57600160008085815260200190815260200160002060000160008473ffffffffffffffffffffffffffffffffffffffff1673ffffffffffffffffffffffffffffffffffffffff16815260200190815260200160002060006101000a81548160ff021916908315150217905550620000fa620001d360201b60201c565b73ffffffffffffffffffffffffffffffffffffffff168273ffffffffffffffffffffffffffffffffffffffff16847f2f8788117e7eff1d82e926ec794901d17c78024a50270940304540a733656f0d60405160405180910390a46001905062000163565b600090505b92915050565b600080600084815260200190815260200160002060000160008373ffffffffffffffffffffffffffffffffffffffff1673ffffffffffffffffffffffffffffffffffffffff16815260200190815260200160002060009054906101000a900460ff16905092915050565b600033905090565b61171380620001eb6000396000f3fe6080604052600436106100e15760003560e01c806391d148541161007f578063a217fddf11610059578063a217fddf14610304578063b322edea1461032f578063d547741f14610358578063f435f5a71461038157610121565b806391d1485414610271578063926d7d7f146102ae578063978bbdb9146102d957610121565b80632f2ff15d116100bb5780632f2ff15d146101dd57806336568abe14610206578063476343ee1461022f57806360c6d8ae1461024657610121565b806301ffc9a71461012657806314252d5914610163578063248a9ca3146101a057610121565b36610121576040517f08c379a000000000000000000000000000000000000000000000000000000000815260040161011890610dc2565b60405180910390fd5b600080fd5b34801561013257600080fd5b5061014d60048036038101906101489190610e3f565b61039d565b60405161015a9190610e87565b60405180910390f35b34801561016f57600080fd5b5061018a60048036038101906101859190610ed8565b610417565b6040516101979190610e87565b60405180910390f35b3480156101ac57600080fd5b506101c760048036038101906101c29190610ed8565b610437565b6040516101d49190610f14565b60405180910390f35b3480156101e957600080fd5b5061020460048036038101906101ff9190610f8d565b610456565b005b34801561021257600080fd5b5061022d60048036038101906102289190610f8d565b610478565b005b34801561023b57600080fd5b506102446104f3565b005b34801561025257600080fd5b5061025b610653565b6040516102689190610fe6565b60405180910390f35b34801561027d57600080fd5b5061029860048036038101906102939190610f8d565b610659565b6040516102a59190610e87565b60405180910390f35b3480156102ba57600080fd5b506102c36106c3565b6040516102d09190610f14565b60405180910390f35b3480156102e557600080fd5b506102ee6106e7565b6040516102fb9190610fe6565b60405180910390f35b34801561031057600080fd5b506103196106ed565b6040516103269190610f14565b60405180910390f35b34801561033b57600080fd5b506103566004803603810190610351919061102d565b6106f4565b005b34801561036457600080fd5b5061037f600480360381019061037a9190610f8d565b610934565b005b61039b60048036038101906103969190611080565b610956565b005b60007f7965db0b000000000000000000000000000000000000000000000000000000007bffffffffffffffffffffffffffffffffffffffffffffffffffffffff1916827bffffffffffffffffffffffffffffffffffffffffffffffffffffffff19161480610410575061040f82610a85565b5b9050919050565b60036020528060005260406000206000915054906101000a900460ff1681565b6000806000838152602001908152602001600020600101549050919050565b61045f82610437565b61046881610aef565b6104728383610b03565b50505050565b610480610bf4565b73ffffffffffffffffffffffffffffffffffffffff168173ffffffffffffffffffffffffffffffffffffffff16146104e4576040517f6697b23200000000000000000000000000000000000000000000000000000000815260040160405180910390fd5b6104ee8282610bfc565b505050565b6000801b61050081610aef565b600060025411610545576040517f08c379a000000000000000000000000000000000000000000000000000000000815260040161053c906110f9565b60405180910390fd5b60006002549050600060028190555060003373ffffffffffffffffffffffffffffffffffffffff168260405161057a9061114a565b60006040518083038185875af1925050503d80600081146105b7576040519150601f19603f3d011682016040523d82523d6000602084013e6105bc565b606091505b5050905080610600576040517f08c379a00000000000000000000000000000000000000000000000000000000081526004016105f7906111ab565b60405180910390fd5b3373ffffffffffffffffffffffffffffffffffffffff167fc0819c13be868895eb93e40eaceb96de976442fa1d404e5c55f14bb65a8c489a836040516106469190610fe6565b60405180910390a2505050565b60025481565b600080600084815260200190815260200160002060000160008373ffffffffffffffffffffffffffffffffffffffff1673ffffffffffffffffffffffffffffffffffffffff16815260200190815260200160002060009054906101000a900460ff16905092915050565b7fe2b7fb3b832174769106daebcfd6d1970523240dda11281102db9363b83b0dc481565b60015481565b6000801b81565b7fe2b7fb3b832174769106daebcfd6d1970523240dda11281102db9363b83b0dc461071e81610aef565b6003600083815260200190815260200160002060009054906101000a900460ff161561077f576040517f08c379a00000000000000000000000000000000000000000000000000000000081526004016107769061123d565b60405180910390fd5b600083116107c2576040517f08c379a00000000000000000000000000000000000000000000000000000000081526004016107b9906112a9565b60405180910390fd5b82471015610805576040517f08c379a00000000000000000000000000000000000000000000000000000000081526004016107fc9061133b565b60405180910390fd5b60016003600084815260200190815260200160002060006101000a81548160ff02191690831515021790555060008473ffffffffffffffffffffffffffffffffffffffff16846040516108579061114a565b60006040518083038185875af1925050503d8060008114610894576040519150601f19603f3d011682016040523d82523d6000602084013e610899565b606091505b50509050806108dd576040517f08c379a00000000000000000000000000000000000000000000000000000000081526004016108d4906113a7565b60405180910390fd5b8473ffffffffffffffffffffffffffffffffffffffff167f0789f9c65a83ea68c24fd9e4ddf905e92e29f40da2c579072f6426d28e85ca1385856040516109259291906113c7565b60405180910390a25050505050565b61093d82610437565b61094681610aef565b6109508383610bfc565b50505050565b60003411610999576040517f08c379a00000000000000000000000000000000000000000000000000000000081526004016109909061143c565b60405180910390fd5b60006103e8600154346109ac919061148b565b6109b691906114fc565b9050600081346109c6919061152d565b905081600260008282546109da9190611561565b9250508190555060003384834243306040516020016109fe969594939291906115fe565b6040516020818303038152906040528051906020012090508373ffffffffffffffffffffffffffffffffffffffff163373ffffffffffffffffffffffffffffffffffffffff167f7aa78006cc7a7618c8491857405853f301af6f51619f45603c6bb6cc9688668b848685604051610a779392919061166e565b60405180910390a350505050565b60007f01ffc9a7000000000000000000000000000000000000000000000000000000007bffffffffffffffffffffffffffffffffffffffffffffffffffffffff1916827bffffffffffffffffffffffffffffffffffffffffffffffffffffffff1916149050919050565b610b0081610afb610bf4565b610cee565b50565b6000610b0f8383610659565b610be957600160008085815260200190815260200160002060000160008473ffffffffffffffffffffffffffffffffffffffff1673ffffffffffffffffffffffffffffffffffffffff16815260200190815260200160002060006101000a81548160ff021916908315150217905550610b86610bf4565b73ffffffffffffffffffffffffffffffffffffffff168273ffffffffffffffffffffffffffffffffffffffff16847f2f8788117e7eff1d82e926ec794901d17c78024a50270940304540a733656f0d60405160405180910390a460019050610bee565b600090505b92915050565b600033905090565b6000610c088383610659565b15610ce357600080600085815260200190815260200160002060000160008473ffffffffffffffffffffffffffffffffffffffff1673ffffffffffffffffffffffffffffffffffffffff16815260200190815260200160002060006101000a81548160ff021916908315150217905550610c80610bf4565b73ffffffffffffffffffffffffffffffffffffffff168273ffffffffffffffffffffffffffffffffffffffff16847ff6391f5c32d9c69d2a47ea670b442974b53935d1edc7fd64eb21e047a839171b60405160405180910390a460019050610ce8565b600090505b92915050565b610cf88282610659565b610d3b5780826040517fe2517d3f000000000000000000000000000000000000000000000000000000008152600401610d329291906116b4565b60405180910390fd5b5050565b600082825260208201905092915050565b7f43616c6c206c6f636b2066756e6374696f6e20746f206465706f73697420455460008201527f4800000000000000000000000000000000000000000000000000000000000000602082015250565b6000610dac602183610d3f565b9150610db782610d50565b604082019050919050565b60006020820190508181036000830152610ddb81610d9f565b9050919050565b600080fd5b60007fffffffff0000000000000000000000000000000000000000000000000000000082169050919050565b610e1c81610de7565b8114610e2757600080fd5b50565b600081359050610e3981610e13565b92915050565b600060208284031215610e5557610e54610de2565b5b6000610e6384828501610e2a565b91505092915050565b60008115159050919050565b610e8181610e6c565b82525050565b6000602082019050610e9c6000830184610e78565b92915050565b6000819050919050565b610eb581610ea2565b8114610ec057600080fd5b50565b600081359050610ed281610eac565b92915050565b600060208284031215610eee57610eed610de2565b5b6000610efc84828501610ec3565b91505092915050565b610f0e81610ea2565b82525050565b6000602082019050610f296000830184610f05565b92915050565b600073ffffffffffffffffffffffffffffffffffffffff82169050919050565b6000610f5a82610f2f565b9050919050565b610f6a81610f4f565b8114610f7557600080fd5b50565b600081359050610f8781610f61565b92915050565b60008060408385031215610fa457610fa3610de2565b5b6000610fb285828601610ec3565b9250506020610fc385828601610f78565b9150509250929050565b6000819050919050565b610fe081610fcd565b82525050565b6000602082019050610ffb6000830184610fd7565b92915050565b61100a81610fcd565b811461101557600080fd5b50565b60008135905061102781611001565b92915050565b60008060006060848603121561104657611045610de2565b5b600061105486828701610f78565b935050602061106586828701611018565b925050604061107686828701610ec3565b9150509250925092565b60006020828403121561109657611095610de2565b5b60006110a484828501610f78565b91505092915050565b7f4e6f206665657320746f20776974686472617700000000000000000000000000600082015250565b60006110e3601383610d3f565b91506110ee826110ad565b602082019050919050565b60006020820190508181036000830152611112816110d6565b9050919050565b600081905092915050565b50565b6000611134600083611119565b915061113f82611124565b600082019050919050565b600061115582611127565b9150819050919050565b7f466565207769746864726177616c206661696c65640000000000000000000000600082015250565b6000611195601583610d3f565b91506111a08261115f565b602082019050919050565b600060208201905081810360008301526111c481611188565b9050919050565b7f43726f73732d636861696e206861736820616c72656164792070726f6365737360008201527f656420666f7220756e6c6f636b00000000000000000000000000000000000000602082015250565b6000611227602d83610d3f565b9150611232826111cb565b604082019050919050565b600060208201905081810360008301526112568161121a565b9050919050565b7f416d6f756e74206d7573742062652067726561746572207468616e2030000000600082015250565b6000611293601d83610d3f565b915061129e8261125d565b602082019050919050565b600060208201905081810360008301526112c281611286565b9050919050565b7f496e73756666696369656e7420636f6e74726163742062616c616e636520746f60008201527f20756e6c6f636b00000000000000000000000000000000000000000000000000602082015250565b6000611325602783610d3f565b9150611330826112c9565b604082019050919050565b6000602082019050818103600083015261135481611318565b9050919050565b7f45544820756e6c6f636b206661696c6564000000000000000000000000000000600082015250565b6000611391601183610d3f565b915061139c8261135b565b602082019050919050565b600060208201905081810360008301526113c081611384565b9050919050565b60006040820190506113dc6000830185610fd7565b6113e96020830184610f05565b9392505050565b7f4e6f206574682073656e74000000000000000000000000000000000000000000600082015250565b6000611426600b83610d3f565b9150611431826113f0565b602082019050919050565b6000602082019050818103600083015261145581611419565b9050919050565b7f4e487b7100000000000000000000000000000000000000000000000000000000600052601160045260246000fd5b600061149682610fcd565b91506114a183610fcd565b92508282026114af81610fcd565b915082820484148315176114c6576114c561145c565b5b5092915050565b7f4e487b7100000000000000000000000000000000000000000000000000000000600052601260045260246000fd5b600061150782610fcd565b915061151283610fcd565b925082611522576115216114cd565b5b828204905092915050565b600061153882610fcd565b915061154383610fcd565b925082820390508181111561155b5761155a61145c565b5b92915050565b600061156c82610fcd565b915061157783610fcd565b925082820190508082111561158f5761158e61145c565b5b92915050565b60008160601b9050919050565b60006115ad82611595565b9050919050565b60006115bf826115a2565b9050919050565b6115d76115d282610f4f565b6115b4565b82525050565b6000819050919050565b6115f86115f382610fcd565b6115dd565b82525050565b600061160a82896115c6565b60148201915061161a82886115c6565b60148201915061162a82876115e7565b60208201915061163a82866115e7565b60208201915061164a82856115e7565b60208201915061165a82846115c6565b601482019150819050979650505050505050565b60006060820190506116836000830186610fd7565b6116906020830185610fd7565b61169d6040830184610f05565b949350505050565b6116ae81610f4f565b82525050565b60006040820190506116c960008301856116a5565b6116d66020830184610f05565b939250505056fea2646970667358221220dc763ea68f1f3867fdd9f882190b4555a1f3f1b48569a1428e514ac446ab9e4064736f6c63430008140033",
  "linkReferences": {},
  "deployedLinkReferences": {}
}