{
  "_format": "hh-sol-artifact-1",
  "contractName": "Target",
  "sourceName": "contracts/double-bridge/v0.2/Target.sol",
  "abi": [
    {
      "inputs": [
        {
          "internalType": "string",
          "name": "name_",
          "type": "string"
        },
        {
          "internalType": "string",
          "name": "symbol_",
          "type": "string"
        },
        {
          "internalType": "uint256",
          "name": "sourceChainId_",
          "type": "uint256"
        },
        {
          "internalType": "address",
          "name": "relayerSigner_",
          "type": "address"
        }
      ],
      "stateMutability": "nonpayable",
      "type": "constructor"
    },
    {
      "inputs": [],
      "name": "InvalidAmount",
      "type": "error"
    },
    {
      "inputs": [],
      "name": "InvalidRecipient",
      "type": "error"
    },
    {
      "inputs": [],
      "name": "InvalidSignature",
      "type": "error"
    },
    {
      "inputs": [],
      "name": "SignerCannotBeZero",
      "type": "error"
    },
    {
      "inputs": [],
      "name": "TransactionAlreadyProcessed",
      "type": "error"
    },
    {
      "anonymous": false,
      "inputs": [
        {
          "indexed": true,
          "internalType": "address",
          "name": "owner",
          "type": "address"
        },
        {
          "indexed": true,
          "internalType": "address",
          "name": "spender",
          "type": "address"
        },
        {
          "indexed": false,
          "internalType": "uint256",
          "name": "value",
          "type": "uint256"
        }
      ],
      "name": "Approval",
      "type": "event"
    },
    {
      "anonymous": false,
      "inputs": [
        {
          "indexed": false,
          "internalType": "address",
          "name": "account",
          "type": "address"
        }
      ],
      "name": "Paused",
      "type": "event"
    },
    {
      "anonymous": false,
      "inputs": [
        {
          "indexed": true,
          "internalType": "address",
          "name": "oldSigner",
          "type": "address"
        },
        {
          "indexed": true,
          "internalType": "address",
          "name": "newSigner",
          "type": "address"
        },
        {
          "indexed": true,
          "internalType": "address",
          "name": "updatedBy",
          "type": "address"
        }
      ],
      "name": "RelayerSignerUpdated",
      "type": "event"
    },
    {
      "anonymous": false,
      "inputs": [
        {
          "indexed": true,
          "internalType": "bytes32",
          "name": "role",
          "type": "bytes32"
        },
        {
          "indexed": true,
          "internalType": "bytes32",
          "name": "previousAdminRole",
          "type": "bytes32"
        },
        {
          "indexed": true,
          "internalType": "bytes32",
          "name": "newAdminRole",
          "type": "bytes32"
        }
      ],
      "name": "RoleAdminChanged",
      "type": "event"
    },
    {
      "anonymous": false,
      "inputs": [
        {
          "indexed": true,
          "internalType": "bytes32",
          "name": "role",
          "type": "bytes32"
        },
        {
          "indexed": true,
          "internalType": "address",
          "name": "account",
          "type": "address"
        },
        {
          "indexed": true,
          "internalType": "address",
          "name": "sender",
          "type": "address"
        }
      ],
      "name": "RoleGranted",
      "type": "event"
    },
    {
      "anonymous": false,
      "inputs": [
        {
          "indexed": true,
          "internalType": "bytes32",
          "name": "role",
          "type": "bytes32"
        },
        {
          "indexed": true,
          "internalType": "address",
          "name": "account",
          "type": "address"
        },
        {
          "indexed": true,
          "internalType": "address",
          "name": "sender",
          "type": "address"
        }
      ],
      "name": "RoleRevoked",
      "type": "event"
    },
    {
      "anonymous": false,
      "inputs": [
        {
          "indexed": true,
          "internalType": "bytes32",
          "name": "transactionId",
          "type": "bytes32"
        },
        {
          "indexed": true,
          "internalType": "address",
          "name": "burner",
          "type": "address"
        },
        {
          "indexed": false,
          "internalType": "uint256",
          "name": "sourceChainId",
          "type": "uint256"
        },
        {
          "indexed": false,
          "internalType": "address",
          "name": "recipientAddress",
          "type": "address"
        },
        {
          "indexed": false,
          "internalType": "uint256",
          "name": "amount",
          "type": "uint256"
        }
      ],
      "name": "TokensBurned",
      "type": "event"
    },
    {
      "anonymous": false,
      "inputs": [
        {
          "indexed": true,
          "internalType": "bytes32",
          "name": "transactionId",
          "type": "bytes32"
        },
        {
          "indexed": true,
          "internalType": "address",
          "name": "recipient",
          "type": "address"
        },
        {
          "indexed": false,
          "internalType": "uint256",
          "name": "amount",
          "type": "uint256"
        },
        {
          "indexed": true,
          "internalType": "address",
          "name": "minter",
          "type": "address"
        }
      ],
      "name": "TokensMinted",
      "type": "event"
    },
    {
      "anonymous": false,
      "inputs": [
        {
          "indexed": true,
          "internalType": "address",
          "name": "from",
          "type": "address"
        },
        {
          "indexed": true,
          "internalType": "address",
          "name": "to",
          "type": "address"
        },
        {
          "indexed": false,
          "internalType": "uint256",
          "name": "value",
          "type": "uint256"
        }
      ],
      "name": "Transfer",
      "type": "event"
    },
    {
      "anonymous": false,
      "inputs": [
        {
          "indexed": false,
          "internalType": "address",
          "name": "account",
          "type": "address"
        }
      ],
      "name": "Unpaused",
      "type": "event"
    },
    {
      "inputs": [],
      "name": "DEFAULT_ADMIN_ROLE",
      "outputs": [
        {
          "internalType": "bytes32",
          "name": "",
          "type": "bytes32"
        }
      ],
      "stateMutability": "view",
      "type": "function"
    },
    {
      "inputs": [],
      "name": "MINTER_ROLE",
      "outputs": [
        {
          "internalType": "bytes32",
          "name": "",
          "type": "bytes32"
        }
      ],
      "stateMutability": "view",
      "type": "function"
    },
    {
      "inputs": [
        {
          "internalType": "address",
          "name": "owner",
          "type": "address"
        },
        {
          "internalType": "address",
          "name": "spender",
          "type": "address"
        }
      ],
      "name": "allowance",
      "outputs": [
        {
          "internalType": "uint256",
          "name": "",
          "type": "uint256"
        }
      ],
      "stateMutability": "view",
      "type": "function"
    },
    {
      "inputs": [
        {
          "internalType": "address",
          "name": "spender",
          "type": "address"
        },
        {
          "internalType": "uint256",
          "name": "amount",
          "type": "uint256"
        }
      ],
      "name": "approve",
      "outputs": [
        {
          "internalType": "bool",
          "name": "",
          "type": "bool"
        }
      ],
      "stateMutability": "nonpayable",
      "type": "function"
    },
    {
      "inputs": [
        {
          "internalType": "address",
          "name": "account",
          "type": "address"
        }
      ],
      "name": "balanceOf",
      "outputs": [
        {
          "internalType": "uint256",
          "name": "",
          "type": "uint256"
        }
      ],
      "stateMutability": "view",
      "type": "function"
    },
    {
      "inputs": [
        {
          "internalType": "uint256",
          "name": "amount",
          "type": "uint256"
        }
      ],
      "name": "burn",
      "outputs": [],
      "stateMutability": "nonpayable",
      "type": "function"
    },
    {
      "inputs": [
        {
          "internalType": "uint256",
          "name": "amount",
          "type": "uint256"
        },
        {
          "internalType": "address",
          "name": "recipientOnSource",
          "type": "address"
        }
      ],
      "name": "burn",
      "outputs": [],
      "stateMutability": "nonpayable",
      "type": "function"
    },
    {
      "inputs": [
        {
          "internalType": "address",
          "name": "account",
          "type": "address"
        },
        {
          "internalType": "uint256",
          "name": "amount",
          "type": "uint256"
        }
      ],
      "name": "burnFrom",
      "outputs": [],
      "stateMutability": "nonpayable",
      "type": "function"
    },
    {
      "inputs": [],
      "name": "decimals",
      "outputs": [
        {
          "internalType": "uint8",
          "name": "",
          "type": "uint8"
        }
      ],
      "stateMutability": "view",
      "type": "function"
    },
    {
      "inputs": [
        {
          "internalType": "address",
          "name": "spender",
          "type": "address"
        },
        {
          "internalType": "uint256",
          "name": "subtractedValue",
          "type": "uint256"
        }
      ],
      "name": "decreaseAllowance",
      "outputs": [
        {
          "internalType": "bool",
          "name": "",
          "type": "bool"
        }
      ],
      "stateMutability": "nonpayable",
      "type": "function"
    },
    {
      "inputs": [
        {
          "internalType": "bytes32",
          "name": "role",
          "type": "bytes32"
        }
      ],
      "name": "getRoleAdmin",
      "outputs": [
        {
          "internalType": "bytes32",
          "name": "",
          "type": "bytes32"
        }
      ],
      "stateMutability": "view",
      "type": "function"
    },
    {
      "inputs": [
        {
          "internalType": "bytes32",
          "name": "role",
          "type": "bytes32"
        },
        {
          "internalType": "address",
          "name": "account",
          "type": "address"
        }
      ],
      "name": "grantRole",
      "outputs": [],
      "stateMutability": "nonpayable",
      "type": "function"
    },
    {
      "inputs": [
        {
          "internalType": "bytes32",
          "name": "role",
          "type": "bytes32"
        },
        {
          "internalType": "address",
          "name": "account",
          "type": "address"
        }
      ],
      "name": "hasRole",
      "outputs": [
        {
          "internalType": "bool",
          "name": "",
          "type": "bool"
        }
      ],
      "stateMutability": "view",
      "type": "function"
    },
    {
      "inputs": [
        {
          "internalType": "address",
          "name": "spender",
          "type": "address"
        },
        {
          "internalType": "uint256",
          "name": "addedValue",
          "type": "uint256"
        }
      ],
      "name": "increaseAllowance",
      "outputs": [
        {
          "internalType": "bool",
          "name": "",
          "type": "bool"
        }
      ],
      "stateMutability": "nonpayable",
      "type": "function"
    },
    {
      "inputs": [
        {
          "internalType": "bytes32",
          "name": "txId",
          "type": "bytes32"
        },
        {
          "internalType": "address",
          "name": "recipient",
          "type": "address"
        },
        {
          "internalType": "uint256",
          "name": "amount",
          "type": "uint256"
        },
        {
          "internalType": "bytes",
          "name": "signature",
          "type": "bytes"
        }
      ],
      "name": "mint",
      "outputs": [],
      "stateMutability": "nonpayable",
      "type": "function"
    },
    {
      "inputs": [],
      "name": "name",
      "outputs": [
        {
          "internalType": "string",
          "name": "",
          "type": "string"
        }
      ],
      "stateMutability": "view",
      "type": "function"
    },
    {
      "inputs": [],
      "name": "pause",
      "outputs": [],
      "stateMutability": "nonpayable",
      "type": "function"
    },
    {
      "inputs": [],
      "name": "paused",
      "outputs": [
        {
          "internalType": "bool",
          "name": "",
          "type": "bool"
        }
      ],
      "stateMutability": "view",
      "type": "function"
    },
    {
      "inputs": [
        {
          "internalType": "bytes32",
          "name": "",
          "type": "bytes32"
        }
      ],
      "name": "processedMintTxs",
      "outputs": [
        {
          "internalType": "bool",
          "name": "",
          "type": "bool"
        }
      ],
      "stateMutability": "view",
      "type": "function"
    },
    {
      "inputs": [],
      "name": "relayerSigner",
      "outputs": [
        {
          "internalType": "address",
          "name": "",
          "type": "address"
        }
      ],
      "stateMutability": "view",
      "type": "function"
    },
    {
      "inputs": [
        {
          "internalType": "bytes32",
          "name": "role",
          "type": "bytes32"
        },
        {
          "internalType": "address",
          "name": "account",
          "type": "address"
        }
      ],
      "name": "renounceRole",
      "outputs": [],
      "stateMutability": "nonpayable",
      "type": "function"
    },
    {
      "inputs": [
        {
          "internalType": "bytes32",
          "name": "role",
          "type": "bytes32"
        },
        {
          "internalType": "address",
          "name": "account",
          "type": "address"
        }
      ],
      "name": "revokeRole",
      "outputs": [],
      "stateMutability": "nonpayable",
      "type": "function"
    },
    {
      "inputs": [
        {
          "internalType": "address",
          "name": "newSigner",
          "type": "address"
        }
      ],
      "name": "setRelayerSigner",
      "outputs": [],
      "stateMutability": "nonpayable",
      "type": "function"
    },
    {
      "inputs": [],
      "name": "sourceChainId",
      "outputs": [
        {
          "internalType": "uint256",
          "name": "",
          "type": "uint256"
        }
      ],
      "stateMutability": "view",
      "type": "function"
    },
    {
      "inputs": [
        {
          "internalType": "bytes4",
          "name": "interfaceId",
          "type": "bytes4"
        }
      ],
      "name": "supportsInterface",
      "outputs": [
        {
          "internalType": "bool",
          "name": "",
          "type": "bool"
        }
      ],
      "stateMutability": "view",
      "type": "function"
    },
    {
      "inputs": [],
      "name": "symbol",
      "outputs": [
        {
          "internalType": "string",
          "name": "",
          "type": "string"
        }
      ],
      "stateMutability": "view",
      "type": "function"
    },
    {
      "inputs": [],
      "name": "totalSupply",
      "outputs": [
        {
          "internalType": "uint256",
          "name": "",
          "type": "uint256"
        }
      ],
      "stateMutability": "view",
      "type": "function"
    },
    {
      "inputs": [
        {
          "internalType": "address",
          "name": "to",
          "type": "address"
        },
        {
          "internalType": "uint256",
          "name": "amount",
          "type": "uint256"
        }
      ],
      "name": "transfer",
      "outputs": [
        {
          "internalType": "bool",
          "name": "",
          "type": "bool"
        }
      ],
      "stateMutability": "nonpayable",
      "type": "function"
    },
    {
      "inputs": [
        {
          "internalType": "address",
          "name": "from",
          "type": "address"
        },
        {
          "internalType": "address",
          "name": "to",
          "type": "address"
        },
        {
          "internalType": "uint256",
          "name": "amount",
          "type": "uint256"
        }
      ],
      "name": "transferFrom",
      "outputs": [
        {
          "internalType": "bool",
          "name": "",
          "type": "bool"
        }
      ],
      "stateMutability": "nonpayable",
      "type": "function"
    },
    {
      "inputs": [],
      "name": "unpause",
      "outputs": [],
      "stateMutability": "nonpayable",
      "type": "function"
    }
  ],
  "bytecode": "0x60a06040523480156200001157600080fd5b506040516200406c3803806200406c833981810160405281019062000037919062000513565b838381600390816200004a919062000804565b5080600490816200005c919062000804565b5050506000600660006101000a81548160ff021916908315150217905550600073ffffffffffffffffffffffffffffffffffffffff168173ffffffffffffffffffffffffffffffffffffffff1603620000e1576040517f7b3a0df600000000000000000000000000000000000000000000000000000000815260040160405180910390fd5b816080818152505080600660016101000a81548173ffffffffffffffffffffffffffffffffffffffff021916908373ffffffffffffffffffffffffffffffffffffffff1602179055506200013f6000801b336200017b60201b60201c565b620001717f9f2df0fed2c77648de5860a4cc508cd0818c85b8b8a1ab4ceeef8d981c8956a6336200017b60201b60201c565b50505050620008eb565b6200018d82826200026d60201b60201c565b620002695760016005600084815260200190815260200160002060000160008373ffffffffffffffffffffffffffffffffffffffff1673ffffffffffffffffffffffffffffffffffffffff16815260200190815260200160002060006101000a81548160ff0219169083151502179055506200020e620002d860201b60201c565b73ffffffffffffffffffffffffffffffffffffffff168173ffffffffffffffffffffffffffffffffffffffff16837f2f8788117e7eff1d82e926ec794901d17c78024a50270940304540a733656f0d60405160405180910390a45b5050565b60006005600084815260200190815260200160002060000160008373ffffffffffffffffffffffffffffffffffffffff1673ffffffffffffffffffffffffffffffffffffffff16815260200190815260200160002060009054906101000a900460ff16905092915050565b600033905090565b6000604051905090565b600080fd5b600080fd5b600080fd5b600080fd5b6000601f19601f8301169050919050565b7f4e487b7100000000000000000000000000000000000000000000000000000000600052604160045260246000fd5b6200034982620002fe565b810181811067ffffffffffffffff821117156200036b576200036a6200030f565b5b80604052505050565b600062000380620002e0565b90506200038e82826200033e565b919050565b600067ffffffffffffffff821115620003b157620003b06200030f565b5b620003bc82620002fe565b9050602081019050919050565b60005b83811015620003e9578082015181840152602081019050620003cc565b60008484015250505050565b60006200040c620004068462000393565b62000374565b9050828152602081018484840111156200042b576200042a620002f9565b5b62000438848285620003c9565b509392505050565b600082601f830112620004585762000457620002f4565b5b81516200046a848260208601620003f5565b91505092915050565b6000819050919050565b620004888162000473565b81146200049457600080fd5b50565b600081519050620004a8816200047d565b92915050565b600073ffffffffffffffffffffffffffffffffffffffff82169050919050565b6000620004db82620004ae565b9050919050565b620004ed81620004ce565b8114620004f957600080fd5b50565b6000815190506200050d81620004e2565b92915050565b6000806000806080858703121562000530576200052f620002ea565b5b600085015167ffffffffffffffff811115620005515762000550620002ef565b5b6200055f8782880162000440565b945050602085015167ffffffffffffffff811115620005835762000582620002ef565b5b620005918782880162000440565b9350506040620005a48782880162000497565b9250506060620005b787828801620004fc565b91505092959194509250565b600081519050919050565b7f4e487b7100000000000000000000000000000000000000000000000000000000600052602260045260246000fd5b600060028204905060018216806200061657607f821691505b6020821081036200062c576200062b620005ce565b5b50919050565b60008190508160005260206000209050919050565b60006020601f8301049050919050565b600082821b905092915050565b600060088302620006967fffffffffffffffffffffffffffffffffffffffffffffffffffffffffffffffff8262000657565b620006a2868362000657565b95508019841693508086168417925050509392505050565b6000819050919050565b6000620006e5620006df620006d98462000473565b620006ba565b62000473565b9050919050565b6000819050919050565b6200070183620006c4565b620007196200071082620006ec565b84845462000664565b825550505050565b600090565b6200073062000721565b6200073d818484620006f6565b505050565b5b8181101562000765576200075960008262000726565b60018101905062000743565b5050565b601f821115620007b4576200077e8162000632565b620007898462000647565b8101602085101562000799578190505b620007b1620007a88562000647565b83018262000742565b50505b505050565b600082821c905092915050565b6000620007d960001984600802620007b9565b1980831691505092915050565b6000620007f48383620007c6565b9150826002028217905092915050565b6200080f82620005c3565b67ffffffffffffffff8111156200082b576200082a6200030f565b5b620008378254620005fd565b6200084482828562000769565b600060209050601f8311600181146200087c576000841562000867578287015190505b620008738582620007e6565b865550620008e3565b601f1984166200088c8662000632565b60005b82811015620008b6578489015182556001820191506020850194506020810190506200088f565b86831015620008d65784890151620008d2601f891682620007c6565b8355505b6001600288020188555050505b505050505050565b60805161375e6200090e600039600081816106ba01526110d0015261375e6000f3fe608060405234801561001057600080fd5b50600436106101da5760003560e01c806370a0823111610104578063a744d7ff116100a2578063d539139311610071578063d53913931461056b578063d547741f14610589578063dd62ed3e146105a5578063fcd3533c146105d5576101da565b8063a744d7ff146104d1578063a9059cbb146104ef578063c014875f1461051f578063c27343421461053b576101da565b806391d14854116100de57806391d148541461043557806395d89b4114610465578063a217fddf14610483578063a457c2d7146104a1576101da565b806370a08231146103df57806379cc67901461040f5780638456cb591461042b576101da565b80632f2ff15d1161017c5780633f4ba83a1161014b5780633f4ba83a1461037f57806341a1364d1461038957806342966c68146103a55780635c975abb146103c1576101da565b80632f2ff15d146102f9578063313ce5671461031557806336568abe14610333578063395093511461034f576101da565b80631544298e116101b85780631544298e1461025d57806318160ddd1461027b57806323b872dd14610299578063248a9ca3146102c9576101da565b806301ffc9a7146101df57806306fdde031461020f578063095ea7b31461022d575b600080fd5b6101f960048036038101906101f49190612353565b6105f1565b604051610206919061239b565b60405180910390f35b610217610603565b6040516102249190612446565b60405180910390f35b610247600480360381019061024291906124fc565b610695565b604051610254919061239b565b60405180910390f35b6102656106b8565b604051610272919061254b565b60405180910390f35b6102836106dc565b604051610290919061254b565b60405180910390f35b6102b360048036038101906102ae9190612566565b6106e6565b6040516102c0919061239b565b60405180910390f35b6102e360048036038101906102de91906125ef565b610715565b6040516102f0919061262b565b60405180910390f35b610313600480360381019061030e9190612646565b610735565b005b61031d610756565b60405161032a91906126a2565b60405180910390f35b61034d60048036038101906103489190612646565b61075f565b005b610369600480360381019061036491906124fc565b6107e2565b604051610376919061239b565b60405180910390f35b610387610819565b005b6103a3600480360381019061039e91906126bd565b610831565b005b6103bf60048036038101906103ba91906126ea565b610982565b005b6103c961098f565b6040516103d6919061239b565b60405180910390f35b6103f960048036038101906103f491906126bd565b6109a6565b604051610406919061254b565b60405180910390f35b610429600480360381019061042491906124fc565b6109ee565b005b610433610a0e565b005b61044f600480360381019061044a9190612646565b610a26565b60405161045c919061239b565b60405180910390f35b61046d610a91565b60405161047a9190612446565b60405180910390f35b61048b610b23565b604051610498919061262b565b60405180910390f35b6104bb60048036038101906104b691906124fc565b610b2a565b6040516104c8919061239b565b60405180910390f35b6104d9610ba1565b6040516104e69190612726565b60405180910390f35b610509600480360381019061050491906124fc565b610bc7565b604051610516919061239b565b60405180910390f35b61053960048036038101906105349190612876565b610bea565b005b610555600480360381019061055091906125ef565b610eae565b604051610562919061239b565b60405180910390f35b610573610ece565b604051610580919061262b565b60405180910390f35b6105a3600480360381019061059e9190612646565b610ef2565b005b6105bf60048036038101906105ba91906128f9565b610f13565b6040516105cc919061254b565b60405180910390f35b6105ef60048036038101906105ea9190612939565b610f9a565b005b60006105fc8261110d565b9050919050565b606060038054610612906129a8565b80601f016020809104026020016040519081016040528092919081815260200182805461063e906129a8565b801561068b5780601f106106605761010080835404028352916020019161068b565b820191906000526020600020905b81548152906001019060200180831161066e57829003601f168201915b5050505050905090565b6000806106a0611187565b90506106ad81858561118f565b600191505092915050565b7f000000000000000000000000000000000000000000000000000000000000000081565b6000600254905090565b6000806106f1611187565b90506106fe858285611358565b6107098585856113e4565b60019150509392505050565b600060056000838152602001908152602001600020600101549050919050565b61073e82610715565b6107478161165a565b610751838361166e565b505050565b60006012905090565b610767611187565b73ffffffffffffffffffffffffffffffffffffffff168173ffffffffffffffffffffffffffffffffffffffff16146107d4576040517f08c379a00000000000000000000000000000000000000000000000000000000081526004016107cb90612a4b565b60405180910390fd5b6107de828261174f565b5050565b6000806107ed611187565b905061080e8185856107ff8589610f13565b6108099190612a9a565b61118f565b600191505092915050565b6000801b6108268161165a565b61082e611831565b50565b6000801b61083e8161165a565b600073ffffffffffffffffffffffffffffffffffffffff168273ffffffffffffffffffffffffffffffffffffffff16036108a4576040517f7b3a0df600000000000000000000000000000000000000000000000000000000815260040160405180910390fd5b6000600660019054906101000a900473ffffffffffffffffffffffffffffffffffffffff16905082600660016101000a81548173ffffffffffffffffffffffffffffffffffffffff021916908373ffffffffffffffffffffffffffffffffffffffff1602179055503373ffffffffffffffffffffffffffffffffffffffff168373ffffffffffffffffffffffffffffffffffffffff168273ffffffffffffffffffffffffffffffffffffffff167f4e6ade3e61d7bf2f2e206589f4416b8526b3bd7dfc07838a11113de3528bfde560405160405180910390a4505050565b61098c8133610f9a565b50565b6000600660009054906101000a900460ff16905090565b60008060008373ffffffffffffffffffffffffffffffffffffffff1673ffffffffffffffffffffffffffffffffffffffff168152602001908152602001600020549050919050565b610a00826109fa611187565b83611358565b610a0a8282611894565b5050565b6000801b610a1b8161165a565b610a23611a61565b50565b60006005600084815260200190815260200160002060000160008373ffffffffffffffffffffffffffffffffffffffff1673ffffffffffffffffffffffffffffffffffffffff16815260200190815260200160002060009054906101000a900460ff16905092915050565b606060048054610aa0906129a8565b80601f0160208091040260200160405190810160405280929190818152602001828054610acc906129a8565b8015610b195780601f10610aee57610100808354040283529160200191610b19565b820191906000526020600020905b815481529060010190602001808311610afc57829003601f168201915b5050505050905090565b6000801b81565b600080610b35611187565b90506000610b438286610f13565b905083811015610b88576040517f08c379a0000000000000000000000000000000000000000000000000000000008152600401610b7f90612b40565b60405180910390fd5b610b95828686840361118f565b60019250505092915050565b600660019054906101000a900473ffffffffffffffffffffffffffffffffffffffff1681565b600080610bd2611187565b9050610bdf8185856113e4565b600191505092915050565b7f9f2df0fed2c77648de5860a4cc508cd0818c85b8b8a1ab4ceeef8d981c8956a6610c148161165a565b610c1c611ac4565b600073ffffffffffffffffffffffffffffffffffffffff168473ffffffffffffffffffffffffffffffffffffffff1603610c82576040517f9c8d2cd200000000000000000000000000000000000000000000000000000000815260040160405180910390fd5b60008303610cbc576040517f2c5211c600000000000000000000000000000000000000000000000000000000815260040160405180910390fd5b6007600086815260200190815260200160002060009054906101000a900460ff1615610d14576040517feb4156ad00000000000000000000000000000000000000000000000000000000815260040160405180910390fd5b600085858530604051602001610d2d9493929190612bea565b60405160208183030381529060405280519060200120604051602001610d539190612c8f565b6040516020818303038152906040528051906020012090506000610d808483611b0e90919063ffffffff16565b9050600660019054906101000a900473ffffffffffffffffffffffffffffffffffffffff1673ffffffffffffffffffffffffffffffffffffffff168173ffffffffffffffffffffffffffffffffffffffff1614610e09576040517f8baa579f00000000000000000000000000000000000000000000000000000000815260040160405180910390fd5b60016007600089815260200190815260200160002060006101000a81548160ff021916908315150217905550610e3f8686611b35565b3373ffffffffffffffffffffffffffffffffffffffff168673ffffffffffffffffffffffffffffffffffffffff16887f3c7310a2312c49418f78a287c62e43c48d108d482543ef1fd9883d0ac3d892c188604051610e9d919061254b565b60405180910390a450505050505050565b60076020528060005260406000206000915054906101000a900460ff1681565b7f9f2df0fed2c77648de5860a4cc508cd0818c85b8b8a1ab4ceeef8d981c8956a681565b610efb82610715565b610f048161165a565b610f0e838361174f565b505050565b6000600160008473ffffffffffffffffffffffffffffffffffffffff1673ffffffffffffffffffffffffffffffffffffffff16815260200190815260200160002060008373ffffffffffffffffffffffffffffffffffffffff1673ffffffffffffffffffffffffffffffffffffffff16815260200190815260200160002054905092915050565b610fa2611ac4565b60008203610fdc576040517f2c5211c600000000000000000000000000000000000000000000000000000000815260040160405180910390fd5b600073ffffffffffffffffffffffffffffffffffffffff168173ffffffffffffffffffffffffffffffffffffffff1603611042576040517f9c8d2cd200000000000000000000000000000000000000000000000000000000815260040160405180910390fd5b60004233846008600081548092919061105a90612cb5565b9190505543604051602001611073959493929190612cfd565b6040516020818303038152906040528051906020012090506110953384611894565b3373ffffffffffffffffffffffffffffffffffffffff16817f4f39acad2e04a1d0e1d286a0fb966bda3ccde1e5dbae5bdc4a90563131ac80537f0000000000000000000000000000000000000000000000000000000000000000858760405161110093929190612d5c565b60405180910390a3505050565b60007f7965db0b000000000000000000000000000000000000000000000000000000007bffffffffffffffffffffffffffffffffffffffffffffffffffffffff1916827bffffffffffffffffffffffffffffffffffffffffffffffffffffffff19161480611180575061117f82611c8b565b5b9050919050565b600033905090565b600073ffffffffffffffffffffffffffffffffffffffff168373ffffffffffffffffffffffffffffffffffffffff16036111fe576040517f08c379a00000000000000000000000000000000000000000000000000000000081526004016111f590612e05565b60405180910390fd5b600073ffffffffffffffffffffffffffffffffffffffff168273ffffffffffffffffffffffffffffffffffffffff160361126d576040517f08c379a000000000000000000000000000000000000000000000000000000000815260040161126490612e97565b60405180910390fd5b80600160008573ffffffffffffffffffffffffffffffffffffffff1673ffffffffffffffffffffffffffffffffffffffff16815260200190815260200160002060008473ffffffffffffffffffffffffffffffffffffffff1673ffffffffffffffffffffffffffffffffffffffff168152602001908152602001600020819055508173ffffffffffffffffffffffffffffffffffffffff168373ffffffffffffffffffffffffffffffffffffffff167f8c5be1e5ebec7d5bd14f71427d1e84f3dd0314c0f7b2291e5b200ac8c7c3b9258360405161134b919061254b565b60405180910390a3505050565b60006113648484610f13565b90507fffffffffffffffffffffffffffffffffffffffffffffffffffffffffffffffff81146113de57818110156113d0576040517f08c379a00000000000000000000000000000000000000000000000000000000081526004016113c790612f03565b60405180910390fd5b6113dd848484840361118f565b5b50505050565b600073ffffffffffffffffffffffffffffffffffffffff168373ffffffffffffffffffffffffffffffffffffffff1603611453576040517f08c379a000000000000000000000000000000000000000000000000000000000815260040161144a90612f95565b60405180910390fd5b600073ffffffffffffffffffffffffffffffffffffffff168273ffffffffffffffffffffffffffffffffffffffff16036114c2576040517f08c379a00000000000000000000000000000000000000000000000000000000081526004016114b990613027565b60405180910390fd5b6114cd838383611cf5565b60008060008573ffffffffffffffffffffffffffffffffffffffff1673ffffffffffffffffffffffffffffffffffffffff16815260200190815260200160002054905081811015611553576040517f08c379a000000000000000000000000000000000000000000000000000000000815260040161154a906130b9565b60405180910390fd5b8181036000808673ffffffffffffffffffffffffffffffffffffffff1673ffffffffffffffffffffffffffffffffffffffff16815260200190815260200160002081905550816000808573ffffffffffffffffffffffffffffffffffffffff1673ffffffffffffffffffffffffffffffffffffffff168152602001908152602001600020600082825401925050819055508273ffffffffffffffffffffffffffffffffffffffff168473ffffffffffffffffffffffffffffffffffffffff167fddf252ad1be2c89b69c2b068fc378daa952ba7f163c4a11628f55a4df523b3ef84604051611641919061254b565b60405180910390a3611654848484611d0d565b50505050565b61166b81611666611187565b611d12565b50565b6116788282610a26565b61174b5760016005600084815260200190815260200160002060000160008373ffffffffffffffffffffffffffffffffffffffff1673ffffffffffffffffffffffffffffffffffffffff16815260200190815260200160002060006101000a81548160ff0219169083151502179055506116f0611187565b73ffffffffffffffffffffffffffffffffffffffff168173ffffffffffffffffffffffffffffffffffffffff16837f2f8788117e7eff1d82e926ec794901d17c78024a50270940304540a733656f0d60405160405180910390a45b5050565b6117598282610a26565b1561182d5760006005600084815260200190815260200160002060000160008373ffffffffffffffffffffffffffffffffffffffff1673ffffffffffffffffffffffffffffffffffffffff16815260200190815260200160002060006101000a81548160ff0219169083151502179055506117d2611187565b73ffffffffffffffffffffffffffffffffffffffff168173ffffffffffffffffffffffffffffffffffffffff16837ff6391f5c32d9c69d2a47ea670b442974b53935d1edc7fd64eb21e047a839171b60405160405180910390a45b5050565b611839611d97565b6000600660006101000a81548160ff0219169083151502179055507f5db9ee0a495bf2e6ff9c91a7834c1ba4fdd244a5e8aa4e537bd38aeae4b073aa61187d611187565b60405161188a9190612726565b60405180910390a1565b600073ffffffffffffffffffffffffffffffffffffffff168273ffffffffffffffffffffffffffffffffffffffff1603611903576040517f08c379a00000000000000000000000000000000000000000000000000000000081526004016118fa9061314b565b60405180910390fd5b61190f82600083611cf5565b60008060008473ffffffffffffffffffffffffffffffffffffffff1673ffffffffffffffffffffffffffffffffffffffff16815260200190815260200160002054905081811015611995576040517f08c379a000000000000000000000000000000000000000000000000000000000815260040161198c906131dd565b60405180910390fd5b8181036000808573ffffffffffffffffffffffffffffffffffffffff1673ffffffffffffffffffffffffffffffffffffffff1681526020019081526020016000208190555081600260008282540392505081905550600073ffffffffffffffffffffffffffffffffffffffff168373ffffffffffffffffffffffffffffffffffffffff167fddf252ad1be2c89b69c2b068fc378daa952ba7f163c4a11628f55a4df523b3ef84604051611a48919061254b565b60405180910390a3611a5c83600084611d0d565b505050565b611a69611ac4565b6001600660006101000a81548160ff0219169083151502179055507f62e78cea01bee320cd4e420270b5ea74000d11b0c9f74754ebdbfc544b05a258611aad611187565b604051611aba9190612726565b60405180910390a1565b611acc61098f565b15611b0c576040517f08c379a0000000000000000000000000000000000000000000000000000000008152600401611b0390613249565b60405180910390fd5b565b6000806000611b1d8585611de0565b91509150611b2a81611e31565b819250505092915050565b600073ffffffffffffffffffffffffffffffffffffffff168273ffffffffffffffffffffffffffffffffffffffff1603611ba4576040517f08c379a0000000000000000000000000000000000000000000000000000000008152600401611b9b906132b5565b60405180910390fd5b611bb060008383611cf5565b8060026000828254611bc29190612a9a565b92505081905550806000808473ffffffffffffffffffffffffffffffffffffffff1673ffffffffffffffffffffffffffffffffffffffff168152602001908152602001600020600082825401925050819055508173ffffffffffffffffffffffffffffffffffffffff16600073ffffffffffffffffffffffffffffffffffffffff167fddf252ad1be2c89b69c2b068fc378daa952ba7f163c4a11628f55a4df523b3ef83604051611c73919061254b565b60405180910390a3611c8760008383611d0d565b5050565b60007f01ffc9a7000000000000000000000000000000000000000000000000000000007bffffffffffffffffffffffffffffffffffffffffffffffffffffffff1916827bffffffffffffffffffffffffffffffffffffffffffffffffffffffff1916149050919050565b611cfd611ac4565b611d08838383611f97565b505050565b505050565b611d1c8282610a26565b611d9357611d2981611f9c565b611d378360001c6020611fc9565b604051602001611d4892919061339e565b6040516020818303038152906040526040517f08c379a0000000000000000000000000000000000000000000000000000000008152600401611d8a9190612446565b60405180910390fd5b5050565b611d9f61098f565b611dde576040517f08c379a0000000000000000000000000000000000000000000000000000000008152600401611dd590613424565b60405180910390fd5b565b6000806041835103611e215760008060006020860151925060408601519150606086015160001a9050611e1587828585612205565b94509450505050611e2a565b60006002915091505b9250929050565b60006004811115611e4557611e44613444565b5b816004811115611e5857611e57613444565b5b0315611f945760016004811115611e7257611e71613444565b5b816004811115611e8557611e84613444565b5b03611ec5576040517f08c379a0000000000000000000000000000000000000000000000000000000008152600401611ebc906134bf565b60405180910390fd5b60026004811115611ed957611ed8613444565b5b816004811115611eec57611eeb613444565b5b03611f2c576040517f08c379a0000000000000000000000000000000000000000000000000000000008152600401611f239061352b565b60405180910390fd5b60036004811115611f4057611f3f613444565b5b816004811115611f5357611f52613444565b5b03611f93576040517f08c379a0000000000000000000000000000000000000000000000000000000008152600401611f8a906135bd565b60405180910390fd5b5b50565b505050565b6060611fc28273ffffffffffffffffffffffffffffffffffffffff16601460ff16611fc9565b9050919050565b606060006002836002611fdc91906135dd565b611fe69190612a9a565b67ffffffffffffffff811115611fff57611ffe61274b565b5b6040519080825280601f01601f1916602001820160405280156120315781602001600182028036833780820191505090505b5090507f3000000000000000000000000000000000000000000000000000000000000000816000815181106120695761206861361f565b5b60200101907effffffffffffffffffffffffffffffffffffffffffffffffffffffffffffff1916908160001a9053507f7800000000000000000000000000000000000000000000000000000000000000816001815181106120cd576120cc61361f565b5b60200101907effffffffffffffffffffffffffffffffffffffffffffffffffffffffffffff1916908160001a9053506000600184600261210d91906135dd565b6121179190612a9a565b90505b60018111156121b7577f3031323334353637383961626364656600000000000000000000000000000000600f8616601081106121595761215861361f565b5b1a60f81b8282815181106121705761216f61361f565b5b60200101907effffffffffffffffffffffffffffffffffffffffffffffffffffffffffffff1916908160001a905350600485901c9450806121b09061364e565b905061211a565b50600084146121fb576040517f08c379a00000000000000000000000000000000000000000000000000000000081526004016121f2906136c3565b60405180910390fd5b8091505092915050565b6000807f7fffffffffffffffffffffffffffffff5d576e7357a4501ddfe92f46681b20a08360001c11156122405760006003915091506122de565b60006001878787876040516000815260200160405260405161226594939291906136e3565b6020604051602081039080840390855afa158015612287573d6000803e3d6000fd5b505050602060405103519050600073ffffffffffffffffffffffffffffffffffffffff168173ffffffffffffffffffffffffffffffffffffffff16036122d5576000600192509250506122de565b80600092509250505b94509492505050565b6000604051905090565b600080fd5b600080fd5b60007fffffffff0000000000000000000000000000000000000000000000000000000082169050919050565b612330816122fb565b811461233b57600080fd5b50565b60008135905061234d81612327565b92915050565b600060208284031215612369576123686122f1565b5b60006123778482850161233e565b91505092915050565b60008115159050919050565b61239581612380565b82525050565b60006020820190506123b0600083018461238c565b92915050565b600081519050919050565b600082825260208201905092915050565b60005b838110156123f05780820151818401526020810190506123d5565b60008484015250505050565b6000601f19601f8301169050919050565b6000612418826123b6565b61242281856123c1565b93506124328185602086016123d2565b61243b816123fc565b840191505092915050565b60006020820190508181036000830152612460818461240d565b905092915050565b600073ffffffffffffffffffffffffffffffffffffffff82169050919050565b600061249382612468565b9050919050565b6124a381612488565b81146124ae57600080fd5b50565b6000813590506124c08161249a565b92915050565b6000819050919050565b6124d9816124c6565b81146124e457600080fd5b50565b6000813590506124f6816124d0565b92915050565b60008060408385031215612513576125126122f1565b5b6000612521858286016124b1565b9250506020612532858286016124e7565b9150509250929050565b612545816124c6565b82525050565b6000602082019050612560600083018461253c565b92915050565b60008060006060848603121561257f5761257e6122f1565b5b600061258d868287016124b1565b935050602061259e868287016124b1565b92505060406125af868287016124e7565b9150509250925092565b6000819050919050565b6125cc816125b9565b81146125d757600080fd5b50565b6000813590506125e9816125c3565b92915050565b600060208284031215612605576126046122f1565b5b6000612613848285016125da565b91505092915050565b612625816125b9565b82525050565b6000602082019050612640600083018461261c565b92915050565b6000806040838503121561265d5761265c6122f1565b5b600061266b858286016125da565b925050602061267c858286016124b1565b9150509250929050565b600060ff82169050919050565b61269c81612686565b82525050565b60006020820190506126b76000830184612693565b92915050565b6000602082840312156126d3576126d26122f1565b5b60006126e1848285016124b1565b91505092915050565b600060208284031215612700576126ff6122f1565b5b600061270e848285016124e7565b91505092915050565b61272081612488565b82525050565b600060208201905061273b6000830184612717565b92915050565b600080fd5b600080fd5b7f4e487b7100000000000000000000000000000000000000000000000000000000600052604160045260246000fd5b612783826123fc565b810181811067ffffffffffffffff821117156127a2576127a161274b565b5b80604052505050565b60006127b56122e7565b90506127c1828261277a565b919050565b600067ffffffffffffffff8211156127e1576127e061274b565b5b6127ea826123fc565b9050602081019050919050565b82818337600083830152505050565b6000612819612814846127c6565b6127ab565b90508281526020810184848401111561283557612834612746565b5b6128408482856127f7565b509392505050565b600082601f83011261285d5761285c612741565b5b813561286d848260208601612806565b91505092915050565b600080600080608085870312156128905761288f6122f1565b5b600061289e878288016125da565b94505060206128af878288016124b1565b93505060406128c0878288016124e7565b925050606085013567ffffffffffffffff8111156128e1576128e06122f6565b5b6128ed87828801612848565b91505092959194509250565b600080604083850312156129105761290f6122f1565b5b600061291e858286016124b1565b925050602061292f858286016124b1565b9150509250929050565b600080604083850312156129505761294f6122f1565b5b600061295e858286016124e7565b925050602061296f858286016124b1565b9150509250929050565b7f4e487b7100000000000000000000000000000000000000000000000000000000600052602260045260246000fd5b600060028204905060018216806129c057607f821691505b6020821081036129d3576129d2612979565b5b50919050565b7f416363657373436f6e74726f6c3a2063616e206f6e6c792072656e6f756e636560008201527f20726f6c657320666f722073656c660000000000000000000000000000000000602082015250565b6000612a35602f836123c1565b9150612a40826129d9565b604082019050919050565b60006020820190508181036000830152612a6481612a28565b9050919050565b7f4e487b7100000000000000000000000000000000000000000000000000000000600052601160045260246000fd5b6000612aa5826124c6565b9150612ab0836124c6565b9250828201905080821115612ac857612ac7612a6b565b5b92915050565b7f45524332303a2064656372656173656420616c6c6f77616e63652062656c6f7760008201527f207a65726f000000000000000000000000000000000000000000000000000000602082015250565b6000612b2a6025836123c1565b9150612b3582612ace565b604082019050919050565b60006020820190508181036000830152612b5981612b1d565b9050919050565b6000819050919050565b612b7b612b76826125b9565b612b60565b82525050565b60008160601b9050919050565b6000612b9982612b81565b9050919050565b6000612bab82612b8e565b9050919050565b612bc3612bbe82612488565b612ba0565b82525050565b6000819050919050565b612be4612bdf826124c6565b612bc9565b82525050565b6000612bf68287612b6a565b602082019150612c068286612bb2565b601482019150612c168285612bd3565b602082019150612c268284612bb2565b60148201915081905095945050505050565b600081905092915050565b7f19457468657265756d205369676e6564204d6573736167653a0a333200000000600082015250565b6000612c79601c83612c38565b9150612c8482612c43565b601c82019050919050565b6000612c9a82612c6c565b9150612ca68284612b6a565b60208201915081905092915050565b6000612cc0826124c6565b91507fffffffffffffffffffffffffffffffffffffffffffffffffffffffffffffffff8203612cf257612cf1612a6b565b5b600182019050919050565b6000612d098288612bd3565b602082019150612d198287612bb2565b601482019150612d298286612bd3565b602082019150612d398285612bd3565b602082019150612d498284612bd3565b6020820191508190509695505050505050565b6000606082019050612d71600083018661253c565b612d7e6020830185612717565b612d8b604083018461253c565b949350505050565b7f45524332303a20617070726f76652066726f6d20746865207a65726f2061646460008201527f7265737300000000000000000000000000000000000000000000000000000000602082015250565b6000612def6024836123c1565b9150612dfa82612d93565b604082019050919050565b60006020820190508181036000830152612e1e81612de2565b9050919050565b7f45524332303a20617070726f766520746f20746865207a65726f20616464726560008201527f7373000000000000000000000000000000000000000000000000000000000000602082015250565b6000612e816022836123c1565b9150612e8c82612e25565b604082019050919050565b60006020820190508181036000830152612eb081612e74565b9050919050565b7f45524332303a20696e73756666696369656e7420616c6c6f77616e6365000000600082015250565b6000612eed601d836123c1565b9150612ef882612eb7565b602082019050919050565b60006020820190508181036000830152612f1c81612ee0565b9050919050565b7f45524332303a207472616e736665722066726f6d20746865207a65726f20616460008201527f6472657373000000000000000000000000000000000000000000000000000000602082015250565b6000612f7f6025836123c1565b9150612f8a82612f23565b604082019050919050565b60006020820190508181036000830152612fae81612f72565b9050919050565b7f45524332303a207472616e7366657220746f20746865207a65726f206164647260008201527f6573730000000000000000000000000000000000000000000000000000000000602082015250565b60006130116023836123c1565b915061301c82612fb5565b604082019050919050565b6000602082019050818103600083015261304081613004565b9050919050565b7f45524332303a207472616e7366657220616d6f756e742065786365656473206260008201527f616c616e63650000000000000000000000000000000000000000000000000000602082015250565b60006130a36026836123c1565b91506130ae82613047565b604082019050919050565b600060208201905081810360008301526130d281613096565b9050919050565b7f45524332303a206275726e2066726f6d20746865207a65726f2061646472657360008201527f7300000000000000000000000000000000000000000000000000000000000000602082015250565b60006131356021836123c1565b9150613140826130d9565b604082019050919050565b6000602082019050818103600083015261316481613128565b9050919050565b7f45524332303a206275726e20616d6f756e7420657863656564732062616c616e60008201527f6365000000000000000000000000000000000000000000000000000000000000602082015250565b60006131c76022836123c1565b91506131d28261316b565b604082019050919050565b600060208201905081810360008301526131f6816131ba565b9050919050565b7f5061757361626c653a2070617573656400000000000000000000000000000000600082015250565b60006132336010836123c1565b915061323e826131fd565b602082019050919050565b6000602082019050818103600083015261326281613226565b9050919050565b7f45524332303a206d696e7420746f20746865207a65726f206164647265737300600082015250565b600061329f601f836123c1565b91506132aa82613269565b602082019050919050565b600060208201905081810360008301526132ce81613292565b9050919050565b7f416363657373436f6e74726f6c3a206163636f756e7420000000000000000000600082015250565b600061330b601783612c38565b9150613316826132d5565b601782019050919050565b600061332c826123b6565b6133368185612c38565b93506133468185602086016123d2565b80840191505092915050565b7f206973206d697373696e6720726f6c6520000000000000000000000000000000600082015250565b6000613388601183612c38565b915061339382613352565b601182019050919050565b60006133a9826132fe565b91506133b58285613321565b91506133c08261337b565b91506133cc8284613321565b91508190509392505050565b7f5061757361626c653a206e6f7420706175736564000000000000000000000000600082015250565b600061340e6014836123c1565b9150613419826133d8565b602082019050919050565b6000602082019050818103600083015261343d81613401565b9050919050565b7f4e487b7100000000000000000000000000000000000000000000000000000000600052602160045260246000fd5b7f45434453413a20696e76616c6964207369676e61747572650000000000000000600082015250565b60006134a96018836123c1565b91506134b482613473565b602082019050919050565b600060208201905081810360008301526134d88161349c565b9050919050565b7f45434453413a20696e76616c6964207369676e6174757265206c656e67746800600082015250565b6000613515601f836123c1565b9150613520826134df565b602082019050919050565b6000602082019050818103600083015261354481613508565b9050919050565b7f45434453413a20696e76616c6964207369676e6174757265202773272076616c60008201527f7565000000000000000000000000000000000000000000000000000000000000602082015250565b60006135a76022836123c1565b91506135b28261354b565b604082019050919050565b600060208201905081810360008301526135d68161359a565b9050919050565b60006135e8826124c6565b91506135f3836124c6565b9250828202613601816124c6565b9150828204841483151761361857613617612a6b565b5b5092915050565b7f4e487b7100000000000000000000000000000000000000000000000000000000600052603260045260246000fd5b6000613659826124c6565b91506000820361366c5761366b612a6b565b5b600182039050919050565b7f537472696e67733a20686578206c656e67746820696e73756666696369656e74600082015250565b60006136ad6020836123c1565b91506136b882613677565b602082019050919050565b600060208201905081810360008301526136dc816136a0565b9050919050565b60006080820190506136f8600083018761261c565b6137056020830186612693565b613712604083018561261c565b61371f606083018461261c565b9594505050505056fea26469706673582212208bdab1ebb2e4804751b92da8e89d06b50722d9a83ea39c90dc7c4ca5c88aeb1e64736f6c63430008130033",
  "linkReferences": {},
  "deployedLinkReferences": {}
}