{
    "_format": "hh-sol-artifact-1",
    "contractName": "Source",
    "sourceName": "contracts/double-bridge/v0.2/Source.sol",
    "abi": [
        {
            "inputs": [],
            "stateMutability": "nonpayable",
            "type": "constructor"
        },
        {
            "anonymous": false,
            "inputs": [
                {
                    "indexed": true,
                    "internalType": "bytes32",
                    "name": "transactionId",
                    "type": "bytes32"
                },
                {
                    "indexed": true,
                    "internalType": "address",
                    "name": "user",
                    "type": "address"
                },
                {
                    "indexed": false,
                    "internalType": "uint256",
                    "name": "destinationChainId",
                    "type": "uint256"
                },
                {
                    "indexed": false,
                    "internalType": "address",
                    "name": "recipientAddress",
                    "type": "address"
                },
                {
                    "indexed": false,
                    "internalType": "address",
                    "name": "tokenAddress",
                    "type": "address"
                },
                {
                    "indexed": false,
                    "internalType": "uint256",
                    "name": "amount",
                    "type": "uint256"
                },
                {
                    "indexed": false,
                    "internalType": "uint256",
                    "name": "fee",
                    "type": "uint256"
                }
            ],
            "name": "AssetLocked",
            "type": "event"
        },
        {
            "anonymous": false,
            "inputs": [
                {
                    "indexed": true,
                    "internalType": "bytes32",
                    "name": "transactionId",
                    "type": "bytes32"
                },
                {
                    "indexed": true,
                    "internalType": "address",
                    "name": "recipient",
                    "type": "address"
                },
                {
                    "indexed": false,
                    "internalType": "address",
                    "name": "tokenAddress",
                    "type": "address"
                },
                {
                    "indexed": false,
                    "internalType": "uint256",
                    "name": "amount",
                    "type": "uint256"
                }
            ],
            "name": "AssetUnlocked",
            "type": "event"
        },
        {
            "anonymous": false,
            "inputs": [
                {
                    "indexed": false,
                    "internalType": "address",
                    "name": "account",
                    "type": "address"
                }
            ],
            "name": "Paused",
            "type": "event"
        },
        {
            "anonymous": false,
            "inputs": [
                {
                    "indexed": true,
                    "internalType": "bytes32",
                    "name": "role",
                    "type": "bytes32"
                },
                {
                    "indexed": true,
                    "internalType": "bytes32",
                    "name": "previousAdminRole",
                    "type": "bytes32"
                },
                {
                    "indexed": true,
                    "internalType": "bytes32",
                    "name": "newAdminRole",
                    "type": "bytes32"
                }
            ],
            "name": "RoleAdminChanged",
            "type": "event"
        },
        {
            "anonymous": false,
            "inputs": [
                {
                    "indexed": true,
                    "internalType": "bytes32",
                    "name": "role",
                    "type": "bytes32"
                },
                {
                    "indexed": true,
                    "internalType": "address",
                    "name": "account",
                    "type": "address"
                },
                {
                    "indexed": true,
                    "internalType": "address",
                    "name": "sender",
                    "type": "address"
                }
            ],
            "name": "RoleGranted",
            "type": "event"
        },
        {
            "anonymous": false,
            "inputs": [
                {
                    "indexed": true,
                    "internalType": "bytes32",
                    "name": "role",
                    "type": "bytes32"
                },
                {
                    "indexed": true,
                    "internalType": "address",
                    "name": "account",
                    "type": "address"
                },
                {
                    "indexed": true,
                    "internalType": "address",
                    "name": "sender",
                    "type": "address"
                }
            ],
            "name": "RoleRevoked",
            "type": "event"
        },
        {
            "anonymous": false,
            "inputs": [
                {
                    "indexed": false,
                    "internalType": "address",
                    "name": "account",
                    "type": "address"
                }
            ],
            "name": "Unpaused",
            "type": "event"
        },
        {
            "inputs": [],
            "name": "DEFAULT_ADMIN_ROLE",
            "outputs": [
                {
                    "internalType": "bytes32",
                    "name": "",
                    "type": "bytes32"
                }
            ],
            "stateMutability": "view",
            "type": "function"
        },
        {
            "inputs": [],
            "name": "FEE_MANAGER_ROLE",
            "outputs": [
                {
                    "internalType": "bytes32",
                    "name": "",
                    "type": "bytes32"
                }
            ],
            "stateMutability": "view",
            "type": "function"
        },
        {
            "inputs": [
                {
                    "internalType": "address",
                    "name": "",
                    "type": "address"
                }
            ],
            "name": "accumulatedFees",
            "outputs": [
                {
                    "internalType": "uint256",
                    "name": "",
                    "type": "uint256"
                }
            ],
            "stateMutability": "view",
            "type": "function"
        },
        {
            "inputs": [],
            "name": "feeConfig",
            "outputs": [
                {
                    "internalType": "bool",
                    "name": "isPercentage",
                    "type": "bool"
                },
                {
                    "internalType": "uint256",
                    "name": "value",
                    "type": "uint256"
                }
            ],
            "stateMutability": "view",
            "type": "function"
        },
        {
            "inputs": [
                {
                    "internalType": "bytes32",
                    "name": "role",
                    "type": "bytes32"
                }
            ],
            "name": "getRoleAdmin",
            "outputs": [
                {
                    "internalType": "bytes32",
                    "name": "",
                    "type": "bytes32"
                }
            ],
            "stateMutability": "view",
            "type": "function"
        },
        {
            "inputs": [
                {
                    "internalType": "bytes32",
                    "name": "role",
                    "type": "bytes32"
                },
                {
                    "internalType": "address",
                    "name": "account",
                    "type": "address"
                }
            ],
            "name": "grantRole",
            "outputs": [],
            "stateMutability": "nonpayable",
            "type": "function"
        },
        {
            "inputs": [
                {
                    "internalType": "bytes32",
                    "name": "role",
                    "type": "bytes32"
                },
                {
                    "internalType": "address",
                    "name": "account",
                    "type": "address"
                }
            ],
            "name": "hasRole",
            "outputs": [
                {
                    "internalType": "bool",
                    "name": "",
                    "type": "bool"
                }
            ],
            "stateMutability": "view",
            "type": "function"
        },
        {
            "inputs": [
                {
                    "internalType": "address",
                    "name": "_token",
                    "type": "address"
                },
                {
                    "internalType": "uint256",
                    "name": "_amount",
                    "type": "uint256"
                },
                {
                    "internalType": "uint256",
                    "name": "_destinationChainId",
                    "type": "uint256"
                },
                {
                    "internalType": "address",
                    "name": "_recipient",
                    "type": "address"
                }
            ],
            "name": "lock",
            "outputs": [],
            "stateMutability": "nonpayable",
            "type": "function"
        },
        {
            "inputs": [
                {
                    "internalType": "uint256",
                    "name": "_destinationChainId",
                    "type": "uint256"
                },
                {
                    "internalType": "address",
                    "name": "_recipient",
                    "type": "address"
                }
            ],
            "name": "lockNative",
            "outputs": [],
            "stateMutability": "payable",
            "type": "function"
        },
        {
            "inputs": [],
            "name": "pause",
            "outputs": [],
            "stateMutability": "nonpayable",
            "type": "function"
        },
        {
            "inputs": [],
            "name": "paused",
            "outputs": [
                {
                    "internalType": "bool",
                    "name": "",
                    "type": "bool"
                }
            ],
            "stateMutability": "view",
            "type": "function"
        },
        {
            "inputs": [
                {
                    "internalType": "bytes32",
                    "name": "",
                    "type": "bytes32"
                }
            ],
            "name": "processedUnlockTxs",
            "outputs": [
                {
                    "internalType": "bool",
                    "name": "",
                    "type": "bool"
                }
            ],
            "stateMutability": "view",
            "type": "function"
        },
        {
            "inputs": [],
            "name": "relayerSigner",
            "outputs": [
                {
                    "internalType": "address",
                    "name": "",
                    "type": "address"
                }
            ],
            "stateMutability": "view",
            "type": "function"
        },
        {
            "inputs": [
                {
                    "internalType": "bytes32",
                    "name": "role",
                    "type": "bytes32"
                },
                {
                    "internalType": "address",
                    "name": "account",
                    "type": "address"
                }
            ],
            "name": "renounceRole",
            "outputs": [],
            "stateMutability": "nonpayable",
            "type": "function"
        },
        {
            "inputs": [
                {
                    "internalType": "bytes32",
                    "name": "role",
                    "type": "bytes32"
                },
                {
                    "internalType": "address",
                    "name": "account",
                    "type": "address"
                }
            ],
            "name": "revokeRole",
            "outputs": [],
            "stateMutability": "nonpayable",
            "type": "function"
        },
        {
            "inputs": [
                {
                    "internalType": "bool",
                    "name": "_isPercentage",
                    "type": "bool"
                },
                {
                    "internalType": "uint256",
                    "name": "_value",
                    "type": "uint256"
                }
            ],
            "name": "setFeeConfig",
            "outputs": [],
            "stateMutability": "nonpayable",
            "type": "function"
        },
        {
            "inputs": [
                {
                    "internalType": "address",
                    "name": "_newSigner",
                    "type": "address"
                }
            ],
            "name": "setRelayerSigner",
            "outputs": [],
            "stateMutability": "nonpayable",
            "type": "function"
        },
        {
            "inputs": [
                {
                    "internalType": "bytes4",
                    "name": "interfaceId",
                    "type": "bytes4"
                }
            ],
            "name": "supportsInterface",
            "outputs": [
                {
                    "internalType": "bool",
                    "name": "",
                    "type": "bool"
                }
            ],
            "stateMutability": "view",
            "type": "function"
        },
        {
            "inputs": [
                {
                    "internalType": "bytes32",
                    "name": "_txId",
                    "type": "bytes32"
                },
                {
                    "internalType": "address",
                    "name": "_token",
                    "type": "address"
                },
                {
                    "internalType": "address",
                    "name": "_recipient",
                    "type": "address"
                },
                {
                    "internalType": "uint256",
                    "name": "_amount",
                    "type": "uint256"
                },
                {
                    "internalType": "bytes",
                    "name": "_signature",
                    "type": "bytes"
                }
            ],
            "name": "unlock",
            "outputs": [],
            "stateMutability": "nonpayable",
            "type": "function"
        },
        {
            "inputs": [],
            "name": "unpause",
            "outputs": [],
            "stateMutability": "nonpayable",
            "type": "function"
        },
        {
            "inputs": [
                {
                    "internalType": "address",
                    "name": "_tokenAddress",
                    "type": "address"
                },
                {
                    "internalType": "address",
                    "name": "_recipient",
                    "type": "address"
                },
                {
                    "internalType": "uint256",
                    "name": "_amount",
                    "type": "uint256"
                }
            ],
            "name": "withdrawFees",
            "outputs": [],
            "stateMutability": "nonpayable",
            "type": "function"
        }
    ],
    "bytecode": "0x60806040523480156200001157600080fd5b506000600160006101000a81548160ff02191690831515021790555060016002819055506200004a6000801b336200008260201b60201c565b6200007c7f6c0757dc3e6b28b2580c03fd9e96c274acf4f99d91fbec9b418fa1d70604ff1c336200008260201b60201c565b620001e5565b6200009482826200017360201b60201c565b6200016f57600160008084815260200190815260200160002060000160008373ffffffffffffffffffffffffffffffffffffffff1673ffffffffffffffffffffffffffffffffffffffff16815260200190815260200160002060006101000a81548160ff02191690831515021790555062000114620001dd60201b60201c565b73ffffffffffffffffffffffffffffffffffffffff168173ffffffffffffffffffffffffffffffffffffffff16837f2f8788117e7eff1d82e926ec794901d17c78024a50270940304540a733656f0d60405160405180910390a45b5050565b600080600084815260200190815260200160002060000160008373ffffffffffffffffffffffffffffffffffffffff1673ffffffffffffffffffffffffffffffffffffffff16815260200190815260200160002060009054906101000a900460ff16905092915050565b600033905090565b6139de80620001f56000396000f3fe60806040526004361061012a5760003560e01c806341a1364d116100ab578063a217fddf1161006f578063a217fddf146103bc578063a744d7ff146103e7578063c10948e314610412578063d547741f1461043b578063e55dc4e614610464578063fcf666641461048d5761012a565b806341a1364d146102d75780635c975abb14610300578063802165941461032b5780638456cb591461036857806391d148541461037f5761012a565b806320a08944116100f257806320a0894414610208578063248a9ca3146102315780632f2ff15d1461026e57806336568abe146102975780633f4ba83a146102c05761012a565b806301ffc9a71461012f57806305db2f411461016c5780630852c9ea146101975780630a49a4c6146101c05780631e5eb1d0146101dc575b600080fd5b34801561013b57600080fd5b506101566004803603810190610151919061219a565b6104ca565b60405161016391906121e2565b60405180910390f35b34801561017857600080fd5b50610181610544565b60405161018e9190612216565b60405180910390f35b3480156101a357600080fd5b506101be60048036038101906101b991906122c5565b610568565b005b6101da60048036038101906101d5919061232c565b610781565b005b3480156101e857600080fd5b506101f161096c565b6040516101ff92919061237b565b60405180910390f35b34801561021457600080fd5b5061022f600480360381019061022a91906123d0565b61098b565b005b34801561023d57600080fd5b506102586004803603810190610253919061243c565b610a2f565b6040516102659190612216565b60405180910390f35b34801561027a57600080fd5b5061029560048036038101906102909190612469565b610a4e565b005b3480156102a357600080fd5b506102be60048036038101906102b99190612469565b610a6f565b005b3480156102cc57600080fd5b506102d5610af2565b005b3480156102e357600080fd5b506102fe60048036038101906102f991906124a9565b610b0a565b005b34801561030c57600080fd5b50610315610bcb565b60405161032291906121e2565b60405180910390f35b34801561033757600080fd5b50610352600480360381019061034d919061243c565b610be2565b60405161035f91906121e2565b60405180910390f35b34801561037457600080fd5b5061037d610c02565b005b34801561038b57600080fd5b506103a660048036038101906103a19190612469565b610c1a565b6040516103b391906121e2565b60405180910390f35b3480156103c857600080fd5b506103d1610c84565b6040516103de9190612216565b60405180910390f35b3480156103f357600080fd5b506103fc610c8b565b60405161040991906124e5565b60405180910390f35b34801561041e57600080fd5b5061043960048036038101906104349190612646565b610cb1565b005b34801561044757600080fd5b50610462600480360381019061045d9190612469565b611039565b005b34801561047057600080fd5b5061048b600480360381019061048691906126dd565b61105a565b005b34801561049957600080fd5b506104b460048036038101906104af91906124a9565b6112fe565b6040516104c19190612730565b60405180910390f35b60007f7965db0b000000000000000000000000000000000000000000000000000000007bffffffffffffffffffffffffffffffffffffffffffffffffffffffff1916827bffffffffffffffffffffffffffffffffffffffffffffffffffffffff1916148061053d575061053c82611316565b5b9050919050565b7f6c0757dc3e6b28b2580c03fd9e96c274acf4f99d91fbec9b418fa1d70604ff1c81565b610570611380565b6105786113ca565b600083116105bb576040517f08c379a00000000000000000000000000000000000000000000000000000000081526004016105b2906127ce565b60405180910390fd5b600073ffffffffffffffffffffffffffffffffffffffff168173ffffffffffffffffffffffffffffffffffffffff160361062a576040517f08c379a000000000000000000000000000000000000000000000000000000000815260040161062190612860565b60405180910390fd5b600061063584611417565b90506000818561064591906128af565b90506000811161068a576040517f08c379a000000000000000000000000000000000000000000000000000000000815260040161068190612955565b60405180910390fd5b81600760008873ffffffffffffffffffffffffffffffffffffffff1673ffffffffffffffffffffffffffffffffffffffff16815260200190815260200160002060008282546106d99190612975565b9250508190555061070d3330878973ffffffffffffffffffffffffffffffffffffffff16611464909392919063ffffffff16565b60006107176114ed565b90503373ffffffffffffffffffffffffffffffffffffffff16817f0e90b55fdd36150e9057f565053c7d5e9e633498596cb1ff03fc0550647dead887878b87896040516107689594939291906129a9565b60405180910390a350505061077b61153a565b50505050565b610789611380565b6107916113ca565b600034116107d4576040517f08c379a00000000000000000000000000000000000000000000000000000000081526004016107cb906127ce565b60405180910390fd5b600073ffffffffffffffffffffffffffffffffffffffff168173ffffffffffffffffffffffffffffffffffffffff1603610843576040517f08c379a000000000000000000000000000000000000000000000000000000000815260040161083a90612860565b60405180910390fd5b600061084e34611417565b90506000813461085e91906128af565b9050600081116108a3576040517f08c379a000000000000000000000000000000000000000000000000000000000815260040161089a90612955565b60405180910390fd5b81600760008073ffffffffffffffffffffffffffffffffffffffff1673ffffffffffffffffffffffffffffffffffffffff16815260200190815260200160002060008282546108f29190612975565b9250508190555060006109036114ed565b90503373ffffffffffffffffffffffffffffffffffffffff16817f0e90b55fdd36150e9057f565053c7d5e9e633498596cb1ff03fc0550647dead88787600087896040516109559594939291906129a9565b60405180910390a350505061096861153a565b5050565b60038060000160009054906101000a900460ff16908060010154905082565b6000801b61099881611544565b82156109e4576127108211156109e3576040517f08c379a00000000000000000000000000000000000000000000000000000000081526004016109da90612a6e565b60405180910390fd5b5b6040518060400160405280841515815260200183815250600360008201518160000160006101000a81548160ff02191690831515021790555060208201518160010155905050505050565b6000806000838152602001908152602001600020600101549050919050565b610a5782610a2f565b610a6081611544565b610a6a8383611558565b505050565b610a77611638565b73ffffffffffffffffffffffffffffffffffffffff168173ffffffffffffffffffffffffffffffffffffffff1614610ae4576040517f08c379a0000000000000000000000000000000000000000000000000000000008152600401610adb90612b00565b60405180910390fd5b610aee8282611640565b5050565b6000801b610aff81611544565b610b07611721565b50565b6000801b610b1781611544565b600073ffffffffffffffffffffffffffffffffffffffff168273ffffffffffffffffffffffffffffffffffffffff1603610b86576040517f08c379a0000000000000000000000000000000000000000000000000000000008152600401610b7d90612b6c565b60405180910390fd5b81600660006101000a81548173ffffffffffffffffffffffffffffffffffffffff021916908373ffffffffffffffffffffffffffffffffffffffff1602179055505050565b6000600160009054906101000a900460ff16905090565b60056020528060005260406000206000915054906101000a900460ff1681565b6000801b610c0f81611544565b610c17611784565b50565b600080600084815260200190815260200160002060000160008373ffffffffffffffffffffffffffffffffffffffff1673ffffffffffffffffffffffffffffffffffffffff16815260200190815260200160002060009054906101000a900460ff16905092915050565b6000801b81565b600660009054906101000a900473ffffffffffffffffffffffffffffffffffffffff1681565b610cb9611380565b610cc16113ca565b6005600086815260200190815260200160002060009054906101000a900460ff1615610d22576040517f08c379a0000000000000000000000000000000000000000000000000000000008152600401610d1990612bfe565b60405180910390fd5b600073ffffffffffffffffffffffffffffffffffffffff16600660009054906101000a900473ffffffffffffffffffffffffffffffffffffffff1673ffffffffffffffffffffffffffffffffffffffff1603610db3576040517f08c379a0000000000000000000000000000000000000000000000000000000008152600401610daa90612c6a565b60405180910390fd5b600085858585604051602001610dcc9493929190612d14565b6040516020818303038152906040528051906020012090506000610def826117e6565b90506000610e06848361181c90919063ffffffff16565b9050600660009054906101000a900473ffffffffffffffffffffffffffffffffffffffff1673ffffffffffffffffffffffffffffffffffffffff168173ffffffffffffffffffffffffffffffffffffffff1614610e98576040517f08c379a0000000000000000000000000000000000000000000000000000000008152600401610e8f90612dae565b60405180910390fd5b6001600560008a815260200190815260200160002060006101000a81548160ff021916908315150217905550600073ffffffffffffffffffffffffffffffffffffffff168773ffffffffffffffffffffffffffffffffffffffff1603610faa5760008673ffffffffffffffffffffffffffffffffffffffff1686604051610f1e90612dff565b60006040518083038185875af1925050503d8060008114610f5b576040519150601f19603f3d011682016040523d82523d6000602084013e610f60565b606091505b5050905080610fa4576040517f08c379a0000000000000000000000000000000000000000000000000000000008152600401610f9b90612e86565b60405180910390fd5b50610fd6565b610fd586868973ffffffffffffffffffffffffffffffffffffffff166118439092919063ffffffff16565b5b8573ffffffffffffffffffffffffffffffffffffffff16887fd553a49eeb457f5de7b9d6b53f2b994b5f56357a3dfe3d0749ae9757d4767639898860405161101f929190612ea6565b60405180910390a350505061103261153a565b5050505050565b61104282610a2f565b61104b81611544565b6110558383611640565b505050565b7f6c0757dc3e6b28b2580c03fd9e96c274acf4f99d91fbec9b418fa1d70604ff1c61108481611544565b61108c6113ca565b600073ffffffffffffffffffffffffffffffffffffffff168373ffffffffffffffffffffffffffffffffffffffff16036110fb576040517f08c379a00000000000000000000000000000000000000000000000000000000081526004016110f290612f41565b60405180910390fd5b6000600760008673ffffffffffffffffffffffffffffffffffffffff1673ffffffffffffffffffffffffffffffffffffffff16815260200190815260200160002054905060008311801561114f5750808311155b61118e576040517f08c379a000000000000000000000000000000000000000000000000000000000815260040161118590612fd3565b60405180910390fd5b828161119a91906128af565b600760008773ffffffffffffffffffffffffffffffffffffffff1673ffffffffffffffffffffffffffffffffffffffff16815260200190815260200160002081905550600073ffffffffffffffffffffffffffffffffffffffff168573ffffffffffffffffffffffffffffffffffffffff16036112c35760008473ffffffffffffffffffffffffffffffffffffffff168460405161123790612dff565b60006040518083038185875af1925050503d8060008114611274576040519150601f19603f3d011682016040523d82523d6000602084013e611279565b606091505b50509050806112bd576040517f08c379a00000000000000000000000000000000000000000000000000000000081526004016112b490613065565b60405180910390fd5b506112ef565b6112ee84848773ffffffffffffffffffffffffffffffffffffffff166118439092919063ffffffff16565b5b506112f861153a565b50505050565b60076020528060005260406000206000915090505481565b60007f01ffc9a7000000000000000000000000000000000000000000000000000000007bffffffffffffffffffffffffffffffffffffffffffffffffffffffff1916827bffffffffffffffffffffffffffffffffffffffffffffffffffffffff1916149050919050565b611388610bcb565b156113c8576040517f08c379a00000000000000000000000000000000000000000000000000000000081526004016113bf906130d1565b60405180910390fd5b565b600280540361140e576040517f08c379a00000000000000000000000000000000000000000000000000000000081526004016114059061313d565b60405180910390fd5b60028081905550565b6000600360000160009054906101000a900460ff16156114565761271060036001015483611445919061315d565b61144f91906131ce565b905061145f565b60036001015490505b919050565b6114e7846323b872dd60e01b858585604051602401611485939291906131ff565b604051602081830303815290604052907bffffffffffffffffffffffffffffffffffffffffffffffffffffffff19166020820180517bffffffffffffffffffffffffffffffffffffffffffffffffffffffff83818316178352505050506118c9565b50505050565b6000806008600081548092919061150390613236565b91905055905046308260405160200161151e9392919061327e565b6040516020818303038152906040528051906020012091505090565b6001600281905550565b61155581611550611638565b611991565b50565b6115628282610c1a565b61163457600160008084815260200190815260200160002060000160008373ffffffffffffffffffffffffffffffffffffffff1673ffffffffffffffffffffffffffffffffffffffff16815260200190815260200160002060006101000a81548160ff0219169083151502179055506115d9611638565b73ffffffffffffffffffffffffffffffffffffffff168173ffffffffffffffffffffffffffffffffffffffff16837f2f8788117e7eff1d82e926ec794901d17c78024a50270940304540a733656f0d60405160405180910390a45b5050565b600033905090565b61164a8282610c1a565b1561171d57600080600084815260200190815260200160002060000160008373ffffffffffffffffffffffffffffffffffffffff1673ffffffffffffffffffffffffffffffffffffffff16815260200190815260200160002060006101000a81548160ff0219169083151502179055506116c2611638565b73ffffffffffffffffffffffffffffffffffffffff168173ffffffffffffffffffffffffffffffffffffffff16837ff6391f5c32d9c69d2a47ea670b442974b53935d1edc7fd64eb21e047a839171b60405160405180910390a45b5050565b611729611a16565b6000600160006101000a81548160ff0219169083151502179055507f5db9ee0a495bf2e6ff9c91a7834c1ba4fdd244a5e8aa4e537bd38aeae4b073aa61176d611638565b60405161177a91906124e5565b60405180910390a1565b61178c611380565b60018060006101000a81548160ff0219169083151502179055507f62e78cea01bee320cd4e420270b5ea74000d11b0c9f74754ebdbfc544b05a2586117cf611638565b6040516117dc91906124e5565b60405180910390a1565b60007f19457468657265756d205369676e6564204d6573736167653a0a33320000000060005281601c52603c6000209050919050565b600080600061182b8585611a5f565b9150915061183881611ab0565b819250505092915050565b6118c48363a9059cbb60e01b8484604051602401611862929190612ea6565b604051602081830303815290604052907bffffffffffffffffffffffffffffffffffffffffffffffffffffffff19166020820180517bffffffffffffffffffffffffffffffffffffffffffffffffffffffff83818316178352505050506118c9565b505050565b600061192b826040518060400160405280602081526020017f5361666545524332303a206c6f772d6c6576656c2063616c6c206661696c65648152508573ffffffffffffffffffffffffffffffffffffffff16611c169092919063ffffffff16565b905060008151148061194d57508080602001905181019061194c91906132d0565b5b61198c576040517f08c379a00000000000000000000000000000000000000000000000000000000081526004016119839061336f565b60405180910390fd5b505050565b61199b8282610c1a565b611a12576119a881611c2e565b6119b68360001c6020611c5b565b6040516020016119c7929190613498565b6040516020818303038152906040526040517f08c379a0000000000000000000000000000000000000000000000000000000008152600401611a09919061350b565b60405180910390fd5b5050565b611a1e610bcb565b611a5d576040517f08c379a0000000000000000000000000000000000000000000000000000000008152600401611a5490613579565b60405180910390fd5b565b6000806041835103611aa05760008060006020860151925060408601519150606086015160001a9050611a9487828585611e97565b94509450505050611aa9565b60006002915091505b9250929050565b60006004811115611ac457611ac3613599565b5b816004811115611ad757611ad6613599565b5b0315611c135760016004811115611af157611af0613599565b5b816004811115611b0457611b03613599565b5b03611b44576040517f08c379a0000000000000000000000000000000000000000000000000000000008152600401611b3b90613614565b60405180910390fd5b60026004811115611b5857611b57613599565b5b816004811115611b6b57611b6a613599565b5b03611bab576040517f08c379a0000000000000000000000000000000000000000000000000000000008152600401611ba290613680565b60405180910390fd5b60036004811115611bbf57611bbe613599565b5b816004811115611bd257611bd1613599565b5b03611c12576040517f08c379a0000000000000000000000000000000000000000000000000000000008152600401611c0990613712565b60405180910390fd5b5b50565b6060611c258484600085611f79565b90509392505050565b6060611c548273ffffffffffffffffffffffffffffffffffffffff16601460ff16611c5b565b9050919050565b606060006002836002611c6e919061315d565b611c789190612975565b67ffffffffffffffff811115611c9157611c9061251b565b5b6040519080825280601f01601f191660200182016040528015611cc35781602001600182028036833780820191505090505b5090507f300000000000000000000000000000000000000000000000000000000000000081600081518110611cfb57611cfa613732565b5b60200101907effffffffffffffffffffffffffffffffffffffffffffffffffffffffffffff1916908160001a9053507f780000000000000000000000000000000000000000000000000000000000000081600181518110611d5f57611d5e613732565b5b60200101907effffffffffffffffffffffffffffffffffffffffffffffffffffffffffffff1916908160001a90535060006001846002611d9f919061315d565b611da99190612975565b90505b6001811115611e49577f3031323334353637383961626364656600000000000000000000000000000000600f861660108110611deb57611dea613732565b5b1a60f81b828281518110611e0257611e01613732565b5b60200101907effffffffffffffffffffffffffffffffffffffffffffffffffffffffffffff1916908160001a905350600485901c945080611e4290613761565b9050611dac565b5060008414611e8d576040517f08c379a0000000000000000000000000000000000000000000000000000000008152600401611e84906137d6565b60405180910390fd5b8091505092915050565b6000807f7fffffffffffffffffffffffffffffff5d576e7357a4501ddfe92f46681b20a08360001c1115611ed2576000600391509150611f70565b600060018787878760405160008152602001604052604051611ef79493929190613812565b6020604051602081039080840390855afa158015611f19573d6000803e3d6000fd5b505050602060405103519050600073ffffffffffffffffffffffffffffffffffffffff168173ffffffffffffffffffffffffffffffffffffffff1603611f6757600060019250925050611f70565b80600092509250505b94509492505050565b606082471015611fbe576040517f08c379a0000000000000000000000000000000000000000000000000000000008152600401611fb5906138c9565b60405180910390fd5b6000808673ffffffffffffffffffffffffffffffffffffffff168587604051611fe79190613925565b60006040518083038185875af1925050503d8060008114612024576040519150601f19603f3d011682016040523d82523d6000602084013e612029565b606091505b509150915061203a87838387612046565b92505050949350505050565b606083156120a85760008351036120a057612060856120bb565b61209f576040517f08c379a000000000000000000000000000000000000000000000000000000000815260040161209690613988565b60405180910390fd5b5b8290506120b3565b6120b283836120de565b5b949350505050565b6000808273ffffffffffffffffffffffffffffffffffffffff163b119050919050565b6000825111156120f15781518083602001fd5b806040517f08c379a0000000000000000000000000000000000000000000000000000000008152600401612125919061350b565b60405180910390fd5b6000604051905090565b600080fd5b600080fd5b60007fffffffff0000000000000000000000000000000000000000000000000000000082169050919050565b61217781612142565b811461218257600080fd5b50565b6000813590506121948161216e565b92915050565b6000602082840312156121b0576121af612138565b5b60006121be84828501612185565b91505092915050565b60008115159050919050565b6121dc816121c7565b82525050565b60006020820190506121f760008301846121d3565b92915050565b6000819050919050565b612210816121fd565b82525050565b600060208201905061222b6000830184612207565b92915050565b600073ffffffffffffffffffffffffffffffffffffffff82169050919050565b600061225c82612231565b9050919050565b61226c81612251565b811461227757600080fd5b50565b60008135905061228981612263565b92915050565b6000819050919050565b6122a28161228f565b81146122ad57600080fd5b50565b6000813590506122bf81612299565b92915050565b600080600080608085870312156122df576122de612138565b5b60006122ed8782880161227a565b94505060206122fe878288016122b0565b935050604061230f878288016122b0565b92505060606123208782880161227a565b91505092959194509250565b6000806040838503121561234357612342612138565b5b6000612351858286016122b0565b92505060206123628582860161227a565b9150509250929050565b6123758161228f565b82525050565b600060408201905061239060008301856121d3565b61239d602083018461236c565b9392505050565b6123ad816121c7565b81146123b857600080fd5b50565b6000813590506123ca816123a4565b92915050565b600080604083850312156123e7576123e6612138565b5b60006123f5858286016123bb565b9250506020612406858286016122b0565b9150509250929050565b612419816121fd565b811461242457600080fd5b50565b60008135905061243681612410565b92915050565b60006020828403121561245257612451612138565b5b600061246084828501612427565b91505092915050565b600080604083850312156124805761247f612138565b5b600061248e85828601612427565b925050602061249f8582860161227a565b9150509250929050565b6000602082840312156124bf576124be612138565b5b60006124cd8482850161227a565b91505092915050565b6124df81612251565b82525050565b60006020820190506124fa60008301846124d6565b92915050565b600080fd5b600080fd5b6000601f19601f8301169050919050565b7f4e487b7100000000000000000000000000000000000000000000000000000000600052604160045260246000fd5b6125538261250a565b810181811067ffffffffffffffff821117156125725761257161251b565b5b80604052505050565b600061258561212e565b9050612591828261254a565b919050565b600067ffffffffffffffff8211156125b1576125b061251b565b5b6125ba8261250a565b9050602081019050919050565b82818337600083830152505050565b60006125e96125e484612596565b61257b565b90508281526020810184848401111561260557612604612505565b5b6126108482856125c7565b509392505050565b600082601f83011261262d5761262c612500565b5b813561263d8482602086016125d6565b91505092915050565b600080600080600060a0868803121561266257612661612138565b5b600061267088828901612427565b95505060206126818882890161227a565b94505060406126928882890161227a565b93505060606126a3888289016122b0565b925050608086013567ffffffffffffffff8111156126c4576126c361213d565b5b6126d088828901612618565b9150509295509295909350565b6000806000606084860312156126f6576126f5612138565b5b60006127048682870161227a565b93505060206127158682870161227a565b9250506040612726868287016122b0565b9150509250925092565b6000602082019050612745600083018461236c565b92915050565b600082825260208201905092915050565b7f536f757263653a20616d6f756e74206d7573742062652067726561746572207460008201527f68616e207a65726f000000000000000000000000000000000000000000000000602082015250565b60006127b860288361274b565b91506127c38261275c565b604082019050919050565b600060208201905081810360008301526127e7816127ab565b9050919050565b7f536f757263653a20696e76616c696420726563697069656e742061646472657360008201527f7300000000000000000000000000000000000000000000000000000000000000602082015250565b600061284a60218361274b565b9150612855826127ee565b604082019050919050565b600060208201905081810360008301526128798161283d565b9050919050565b7f4e487b7100000000000000000000000000000000000000000000000000000000600052601160045260246000fd5b60006128ba8261228f565b91506128c58361228f565b92508282039050818111156128dd576128dc612880565b5b92915050565b7f536f757263653a20616d6f756e74206d7573742062652067726561746572207460008201527f68616e2066656500000000000000000000000000000000000000000000000000602082015250565b600061293f60278361274b565b915061294a826128e3565b604082019050919050565b6000602082019050818103600083015261296e81612932565b9050919050565b60006129808261228f565b915061298b8361228f565b92508282019050808211156129a3576129a2612880565b5b92915050565b600060a0820190506129be600083018861236c565b6129cb60208301876124d6565b6129d860408301866124d6565b6129e5606083018561236c565b6129f2608083018461236c565b9695505050505050565b7f536f757263653a205468652070657263656e74616765206665652063616e6e6f60008201527f7420657863656564203130302500000000000000000000000000000000000000602082015250565b6000612a58602d8361274b565b9150612a63826129fc565b604082019050919050565b60006020820190508181036000830152612a8781612a4b565b9050919050565b7f416363657373436f6e74726f6c3a2063616e206f6e6c792072656e6f756e636560008201527f20726f6c657320666f722073656c660000000000000000000000000000000000602082015250565b6000612aea602f8361274b565b9150612af582612a8e565b604082019050919050565b60006020820190508181036000830152612b1981612add565b9050919050565b7f536f757263653a20496e76616c6964207369676e657220616464726573730000600082015250565b6000612b56601e8361274b565b9150612b6182612b20565b602082019050919050565b60006020820190508181036000830152612b8581612b49565b9050919050565b7f536f757263653a207472616e73616374696f6e20616c72656164792070726f6360008201527f6573736564000000000000000000000000000000000000000000000000000000602082015250565b6000612be860258361274b565b9150612bf382612b8c565b604082019050919050565b60006020820190508181036000830152612c1781612bdb565b9050919050565b7f536f757263653a2072656c61796572207369676e6572206e6f74207365740000600082015250565b6000612c54601e8361274b565b9150612c5f82612c1e565b602082019050919050565b60006020820190508181036000830152612c8381612c47565b9050919050565b6000819050919050565b612ca5612ca0826121fd565b612c8a565b82525050565b60008160601b9050919050565b6000612cc382612cab565b9050919050565b6000612cd582612cb8565b9050919050565b612ced612ce882612251565b612cca565b82525050565b6000819050919050565b612d0e612d098261228f565b612cf3565b82525050565b6000612d208287612c94565b602082019150612d308286612cdc565b601482019150612d408285612cdc565b601482019150612d508284612cfd565b60208201915081905095945050505050565b7f536f757263653a20696e76616c6964207369676e617475726500000000000000600082015250565b6000612d9860198361274b565b9150612da382612d62565b602082019050919050565b60006020820190508181036000830152612dc781612d8b565b9050919050565b600081905092915050565b50565b6000612de9600083612dce565b9150612df482612dd9565b600082019050919050565b6000612e0a82612ddc565b9150819050919050565b7f536f757263653a206e617469766520746f6b656e207472616e7366657220666160008201527f696c656400000000000000000000000000000000000000000000000000000000602082015250565b6000612e7060248361274b565b9150612e7b82612e14565b604082019050919050565b60006020820190508181036000830152612e9f81612e63565b9050919050565b6000604082019050612ebb60008301856124d6565b612ec8602083018461236c565b9392505050565b7f536f757263653a20496e76616c696420726563656976696e672061646472657360008201527f7300000000000000000000000000000000000000000000000000000000000000602082015250565b6000612f2b60218361274b565b9150612f3682612ecf565b604082019050919050565b60006020820190508181036000830152612f5a81612f1e565b9050919050565b7f536f757263653a20496e76616c6964207769746864726177616c20616d6f756e60008201527f7400000000000000000000000000000000000000000000000000000000000000602082015250565b6000612fbd60218361274b565b9150612fc882612f61565b604082019050919050565b60006020820190508181036000830152612fec81612fb0565b9050919050565b7f536f757263653a204e617469766520746f6b656e20666565207472616e73666560008201527f72206661696c6564000000000000000000000000000000000000000000000000602082015250565b600061304f60288361274b565b915061305a82612ff3565b604082019050919050565b6000602082019050818103600083015261307e81613042565b9050919050565b7f5061757361626c653a2070617573656400000000000000000000000000000000600082015250565b60006130bb60108361274b565b91506130c682613085565b602082019050919050565b600060208201905081810360008301526130ea816130ae565b9050919050565b7f5265656e7472616e637947756172643a207265656e7472616e742063616c6c00600082015250565b6000613127601f8361274b565b9150613132826130f1565b602082019050919050565b600060208201905081810360008301526131568161311a565b9050919050565b60006131688261228f565b91506131738361228f565b92508282026131818161228f565b9150828204841483151761319857613197612880565b5b5092915050565b7f4e487b7100000000000000000000000000000000000000000000000000000000600052601260045260246000fd5b60006131d98261228f565b91506131e48361228f565b9250826131f4576131f361319f565b5b828204905092915050565b600060608201905061321460008301866124d6565b61322160208301856124d6565b61322e604083018461236c565b949350505050565b60006132418261228f565b91507fffffffffffffffffffffffffffffffffffffffffffffffffffffffffffffffff820361327357613272612880565b5b600182019050919050565b600061328a8286612cfd565b60208201915061329a8285612cdc565b6014820191506132aa8284612cfd565b602082019150819050949350505050565b6000815190506132ca816123a4565b92915050565b6000602082840312156132e6576132e5612138565b5b60006132f4848285016132bb565b91505092915050565b7f5361666545524332303a204552433230206f7065726174696f6e20646964206e60008201527f6f74207375636365656400000000000000000000000000000000000000000000602082015250565b6000613359602a8361274b565b9150613364826132fd565b604082019050919050565b600060208201905081810360008301526133888161334c565b9050919050565b600081905092915050565b7f416363657373436f6e74726f6c3a206163636f756e7420000000000000000000600082015250565b60006133d060178361338f565b91506133db8261339a565b601782019050919050565b600081519050919050565b60005b8381101561340f5780820151818401526020810190506133f4565b60008484015250505050565b6000613426826133e6565b613430818561338f565b93506134408185602086016133f1565b80840191505092915050565b7f206973206d697373696e6720726f6c6520000000000000000000000000000000600082015250565b600061348260118361338f565b915061348d8261344c565b601182019050919050565b60006134a3826133c3565b91506134af828561341b565b91506134ba82613475565b91506134c6828461341b565b91508190509392505050565b60006134dd826133e6565b6134e7818561274b565b93506134f78185602086016133f1565b6135008161250a565b840191505092915050565b6000602082019050818103600083015261352581846134d2565b905092915050565b7f5061757361626c653a206e6f7420706175736564000000000000000000000000600082015250565b600061356360148361274b565b915061356e8261352d565b602082019050919050565b6000602082019050818103600083015261359281613556565b9050919050565b7f4e487b7100000000000000000000000000000000000000000000000000000000600052602160045260246000fd5b7f45434453413a20696e76616c6964207369676e61747572650000000000000000600082015250565b60006135fe60188361274b565b9150613609826135c8565b602082019050919050565b6000602082019050818103600083015261362d816135f1565b9050919050565b7f45434453413a20696e76616c6964207369676e6174757265206c656e67746800600082015250565b600061366a601f8361274b565b915061367582613634565b602082019050919050565b600060208201905081810360008301526136998161365d565b9050919050565b7f45434453413a20696e76616c6964207369676e6174757265202773272076616c60008201527f7565000000000000000000000000000000000000000000000000000000000000602082015250565b60006136fc60228361274b565b9150613707826136a0565b604082019050919050565b6000602082019050818103600083015261372b816136ef565b9050919050565b7f4e487b7100000000000000000000000000000000000000000000000000000000600052603260045260246000fd5b600061376c8261228f565b91506000820361377f5761377e612880565b5b600182039050919050565b7f537472696e67733a20686578206c656e67746820696e73756666696369656e74600082015250565b60006137c060208361274b565b91506137cb8261378a565b602082019050919050565b600060208201905081810360008301526137ef816137b3565b9050919050565b600060ff82169050919050565b61380c816137f6565b82525050565b60006080820190506138276000830187612207565b6138346020830186613803565b6138416040830185612207565b61384e6060830184612207565b95945050505050565b7f416464726573733a20696e73756666696369656e742062616c616e636520666f60008201527f722063616c6c0000000000000000000000000000000000000000000000000000602082015250565b60006138b360268361274b565b91506138be82613857565b604082019050919050565b600060208201905081810360008301526138e2816138a6565b9050919050565b600081519050919050565b60006138ff826138e9565b6139098185612dce565b93506139198185602086016133f1565b80840191505092915050565b600061393182846138f4565b915081905092915050565b7f416464726573733a2063616c6c20746f206e6f6e2d636f6e7472616374000000600082015250565b6000613972601d8361274b565b915061397d8261393c565b602082019050919050565b600060208201905081810360008301526139a181613965565b905091905056fea264697066735822122047331a680f03ef78253f127299540db9e871b7dd8f42d84784ff9ccb7a73de3464736f6c63430008130033",
    "linkReferences": {},
    "deployedLinkReferences": {}
}